{
  "address": "0xAbcff2BC7C27BC0F3b6F8b7c84212f52Fe66F0b8",
  "abi": [
    {
      "inputs": [],
      "stateMutability": "nonpayable",
      "type": "constructor"
    },
    {
      "anonymous": false,
      "inputs": [
        {
          "indexed": true,
          "internalType": "address",
          "name": "previousOwner",
          "type": "address"
        },
        {
          "indexed": true,
          "internalType": "address",
          "name": "newOwner",
          "type": "address"
        }
      ],
      "name": "OwnershipTransferred",
      "type": "event"
    },
    {
      "anonymous": false,
      "inputs": [
        {
          "indexed": true,
          "internalType": "bytes32",
          "name": "txHash",
          "type": "bytes32"
        },
        {
          "indexed": true,
          "internalType": "uint256",
          "name": "amountWDOGE",
          "type": "uint256"
        },
        {
          "indexed": true,
          "internalType": "address",
          "name": "reciever",
          "type": "address"
        },
        {
          "indexed": false,
          "internalType": "uint256",
          "name": "amountSAVIOR",
          "type": "uint256"
        }
      ],
      "name": "buyComplete",
      "type": "event"
    },
    {
      "stateMutability": "payable",
      "type": "fallback"
    },
    {
      "inputs": [],
      "name": "dogeswap",
      "outputs": [
        {
          "internalType": "contract IDogeswapRouter",
          "name": "",
          "type": "address"
        }
      ],
      "stateMutability": "view",
      "type": "function"
    },
    {
      "inputs": [],
      "name": "egod",
      "outputs": [
        {
          "internalType": "contract IERC20",
          "name": "",
          "type": "address"
        }
      ],
      "stateMutability": "view",
      "type": "function"
    },
    {
      "inputs": [
        {
          "internalType": "bytes32",
          "name": "txHash",
          "type": "bytes32"
        }
      ],
      "name": "isProcessed",
      "outputs": [
        {
          "internalType": "bool",
          "name": "processed",
          "type": "bool"
        }
      ],
      "stateMutability": "view",
      "type": "function"
    },
    {
      "inputs": [],
      "name": "oracle",
      "outputs": [
        {
          "internalType": "address",
          "name": "",
          "type": "address"
        }
      ],
      "stateMutability": "view",
      "type": "function"
    },
    {
      "inputs": [],
      "name": "owner",
      "outputs": [
        {
          "internalType": "address",
          "name": "",
          "type": "address"
        }
      ],
      "stateMutability": "view",
      "type": "function"
    },
    {
      "inputs": [
        {
          "internalType": "bytes32",
          "name": "",
          "type": "bytes32"
        }
      ],
      "name": "proccessedTransactions",
      "outputs": [
        {
          "internalType": "bool",
          "name": "",
          "type": "bool"
        }
      ],
      "stateMutability": "view",
      "type": "function"
    },
    {
      "inputs": [
        {
          "internalType": "bytes32",
          "name": "txHash",
          "type": "bytes32"
        },
        {
          "internalType": "uint256",
          "name": "amountWDOGE",
          "type": "uint256"
        },
        {
          "internalType": "address",
          "name": "reciever",
          "type": "address"
        }
      ],
      "name": "processBuy",
      "outputs": [],
      "stateMutability": "nonpayable",
      "type": "function"
    },
    {
      "inputs": [],
      "name": "renounceOwnership",
      "outputs": [],
      "stateMutability": "nonpayable",
      "type": "function"
    },
    {
      "inputs": [
        {
          "internalType": "address",
          "name": "token",
          "type": "address"
        },
        {
          "internalType": "uint256",
          "name": "amount",
          "type": "uint256"
        }
      ],
      "name": "rescue",
      "outputs": [],
      "stateMutability": "nonpayable",
      "type": "function"
    },
    {
      "inputs": [],
      "name": "rescueWdoge",
      "outputs": [],
      "stateMutability": "nonpayable",
      "type": "function"
    },
    {
      "inputs": [
        {
          "internalType": "address",
          "name": "newOracle",
          "type": "address"
        }
      ],
      "name": "setOracleAddress",
      "outputs": [],
      "stateMutability": "nonpayable",
      "type": "function"
    },
    {
      "inputs": [
        {
          "internalType": "address",
          "name": "newOwner",
          "type": "address"
        }
      ],
      "name": "transferOwnership",
      "outputs": [],
      "stateMutability": "nonpayable",
      "type": "function"
    },
    {
      "stateMutability": "payable",
      "type": "receive"
    }
  ],
  "transactionHash": "0x7a4c934d5b7126e0281fe1afad368c46b480f78243349787e41d6df16be57732",
  "args": [],
  "numDeployments": 6,
  "solcInputHash": "694fce13faf79fc1185fe28dcea881dd",
  "bytecode": "0x608060405234801561001057600080fd5b5061001a33610071565b600280546001600160a01b0319908116331790915560038054821673a4ee06ce40cb7e8c04e127c1f7d3dfb7f7039c811790556004805490911673bfbb7b1d22ff521a541170cafe0c9a7f20d09c3b1790556100c1565b600080546001600160a01b038381166001600160a01b0319831681178455604051919092169283917f8be0079c531659141344cd1fd0a4f28419497f9722a3daafe3b4186f6b6457e09190a35050565b6109e8806100d06000396000f3fe6080604052600436106100bf5760003560e01c80637a4e4ecf1161006e5780639d20913c1161004b5780639d20913c1461020d578063f2fde38b1461022d578063f4d0800a1461024d57005b80637a4e4ecf146101af5780637dc0d1d0146101cf5780638da5cb5b146101ef57005b80634c69c00f1161009c5780634c69c00f146101655780636b377f9314610185578063715018a61461019a57005b80630b221d3a146100c857806311c16896146100e85780632d37a9961461012d57005b366100c657005b005b3480156100d457600080fd5b506100c66100e3366004610838565b61027d565b3480156100f457600080fd5b5061011861010336600461086d565b60009081526001602052604090205460ff1690565b60405190151581526020015b60405180910390f35b34801561013957600080fd5b5060045461014d906001600160a01b031681565b6040516001600160a01b039091168152602001610124565b34801561017157600080fd5b506100c6610180366004610886565b6105bf565b34801561019157600080fd5b506100c66105f6565b3480156101a657600080fd5b506100c661062d565b3480156101bb57600080fd5b506100c66101ca3660046108a8565b610641565b3480156101db57600080fd5b5060025461014d906001600160a01b031681565b3480156101fb57600080fd5b506000546001600160a01b031661014d565b34801561021957600080fd5b5060035461014d906001600160a01b031681565b34801561023957600080fd5b506100c6610248366004610886565b6106d8565b34801561025957600080fd5b5061011861026836600461086d565b60016020526000908152604090205460ff1681565b6002546001600160a01b031633146103025760405162461bcd60e51b815260206004820152602360248201527f4f6e6c79206f7261636c652063616e2063616c6c20746869732066756e63746960448201527f6f6e2e000000000000000000000000000000000000000000000000000000000060648201526084015b60405180910390fd5b60008381526001602052604090205460ff16156103615760405162461bcd60e51b815260206004820152601e60248201527f5472616e73616374696f6e20616c72656164792070726f63636573736564000060448201526064016102f9565b6000838152600160208181526040808420805460ff191690931790925581516002808252606082018452909290918301908036833701905050905073b7ddc6414bf4f5515b52d8bdd69973ae205ff101816000815181106103c4576103c46108d2565b6001600160a01b0392831660209182029290920101526004548251911690829060019081106103f5576103f56108d2565b6001600160a01b039283166020918202929092010152600480546040516370a0823160e01b81528584169281019290925260009216906370a0823190602401602060405180830381865afa158015610451573d6000803e3d6000fd5b505050506040513d601f19601f8201168201806040525081019061047591906108e8565b6003546040517f463513bc0000000000000000000000000000000000000000000000000000000081529192506001600160a01b03169063463513bc9086906104c890600090879089904290600401610901565b6000604051808303818588803b1580156104e157600080fd5b505af11580156104f5573d6000803e3d6000fd5b5050600480546040516370a0823160e01b81526001600160a01b038981169382019390935260009550911692506370a082319150602401602060405180830381865afa158015610549573d6000803e3d6000fd5b505050506040513d601f19601f8201168201806040525081019061056d91906108e8565b90506001600160a01b03841685877ff7043476b42d5c34195d44f0a64281c8105b1c902dc935734f0b73b007dd342f6105a6868661096b565b60405190815260200160405180910390a4505050505050565b6105c7610765565b6002805473ffffffffffffffffffffffffffffffffffffffff19166001600160a01b0392909216919091179055565b6105fe610765565b60405133904780156108fc02916000818181858888f1935050505015801561062a573d6000803e3d6000fd5b50565b610635610765565b61063f60006107bf565b565b610649610765565b6040517fa9059cbb000000000000000000000000000000000000000000000000000000008152336004820152602481018290526001600160a01b0383169063a9059cbb906044016020604051808303816000875af11580156106af573d6000803e3d6000fd5b505050506040513d601f19601f820116820180604052508101906106d39190610990565b505050565b6106e0610765565b6001600160a01b03811661075c5760405162461bcd60e51b815260206004820152602660248201527f4f776e61626c653a206e6577206f776e657220697320746865207a65726f206160448201527f646472657373000000000000000000000000000000000000000000000000000060648201526084016102f9565b61062a816107bf565b6000546001600160a01b0316331461063f5760405162461bcd60e51b815260206004820181905260248201527f4f776e61626c653a2063616c6c6572206973206e6f7420746865206f776e657260448201526064016102f9565b600080546001600160a01b0383811673ffffffffffffffffffffffffffffffffffffffff19831681178455604051919092169283917f8be0079c531659141344cd1fd0a4f28419497f9722a3daafe3b4186f6b6457e09190a35050565b80356001600160a01b038116811461083357600080fd5b919050565b60008060006060848603121561084d57600080fd5b83359250602084013591506108646040850161081c565b90509250925092565b60006020828403121561087f57600080fd5b5035919050565b60006020828403121561089857600080fd5b6108a18261081c565b9392505050565b600080604083850312156108bb57600080fd5b6108c48361081c565b946020939093013593505050565b634e487b7160e01b600052603260045260246000fd5b6000602082840312156108fa57600080fd5b5051919050565b600060808201868352602060808185015281875180845260a086019150828901935060005b8181101561094b5784516001600160a01b031683529383019391830191600101610926565b50506001600160a01b039690961660408501525050506060015292915050565b60008282101561098b57634e487b7160e01b600052601160045260246000fd5b500390565b6000602082840312156109a257600080fd5b815180151581146108a157600080fdfea26469706673582212202fd747a6da0faf56a20594265a8362a7328a6ed73a8bd0c189b68bcb13778eab64736f6c634300080a0033",
  "devdoc": {
    "kind": "dev",
    "methods": {
      "owner()": {
        "details": "Returns the address of the current owner."
      },
      "renounceOwnership()": {
        "details": "Leaves the contract without owner. It will not be possible to call `onlyOwner` functions anymore. Can only be called by the current owner. NOTE: Renouncing ownership will leave the contract without an owner, thereby removing any functionality that is only available to the owner."
      },
      "transferOwnership(address)": {
        "details": "Transfers ownership of the contract to a new account (`newOwner`). Can only be called by the current owner."
      }
    },
    "version": 1
  },
  "userdoc": {
    "kind": "user",
    "methods": {},
    "version": 1
  },
  "storageLayout": {
    "storage": [
      {
        "astId": 7,
        "contract": "contracts/EgodXCReciever.sol:EgodXCReciever",
        "label": "_owner",
        "offset": 0,
        "slot": "0",
        "type": "t_address"
      },
      {
        "astId": 372,
        "contract": "contracts/EgodXCReciever.sol:EgodXCReciever",
        "label": "proccessedTransactions",
        "offset": 0,
        "slot": "1",
        "type": "t_mapping(t_bytes32,t_bool)"
      },
      {
        "astId": 374,
        "contract": "contracts/EgodXCReciever.sol:EgodXCReciever",
        "label": "oracle",
        "offset": 0,
        "slot": "2",
        "type": "t_address"
      },
      {
        "astId": 377,
        "contract": "contracts/EgodXCReciever.sol:EgodXCReciever",
        "label": "dogeswap",
        "offset": 0,
        "slot": "3",
        "type": "t_contract(IDogeswapRouter)354"
      },
      {
        "astId": 380,
        "contract": "contracts/EgodXCReciever.sol:EgodXCReciever",
        "label": "egod",
        "offset": 0,
        "slot": "4",
        "type": "t_contract(IERC20)190"
      }
    ],
    "types": {
      "t_address": {
        "encoding": "inplace",
        "label": "address",
        "numberOfBytes": "20"
      },
      "t_bool": {
        "encoding": "inplace",
        "label": "bool",
        "numberOfBytes": "1"
      },
      "t_bytes32": {
        "encoding": "inplace",
        "label": "bytes32",
        "numberOfBytes": "32"
      },
      "t_contract(IDogeswapRouter)354": {
        "encoding": "inplace",
        "label": "contract IDogeswapRouter",
        "numberOfBytes": "20"
      },
      "t_contract(IERC20)190": {
        "encoding": "inplace",
        "label": "contract IERC20",
        "numberOfBytes": "20"
      },
      "t_mapping(t_bytes32,t_bool)": {
        "encoding": "mapping",
        "key": "t_bytes32",
        "label": "mapping(bytes32 => bool)",
        "numberOfBytes": "32",
        "value": "t_bool"
      }
    }
  }
}