{
  "address": "0x91bCC117017bC0eFbdB4A0F8A02e51C43A10920C",
  "abi": [
    {
      "inputs": [],
      "stateMutability": "nonpayable",
      "type": "constructor"
    },
    {
      "anonymous": false,
      "inputs": [
        {
          "indexed": true,
          "internalType": "address",
          "name": "previousOwner",
          "type": "address"
        },
        {
          "indexed": true,
          "internalType": "address",
          "name": "newOwner",
          "type": "address"
        }
      ],
      "name": "OwnershipTransferred",
      "type": "event"
    },
    {
      "anonymous": false,
      "inputs": [
        {
          "indexed": true,
          "internalType": "address",
          "name": "buyer",
          "type": "address"
        },
        {
          "indexed": true,
          "internalType": "address",
          "name": "DCTokenAddress",
          "type": "address"
        },
        {
          "indexed": true,
          "internalType": "uint256",
          "name": "bridgeId",
          "type": "uint256"
        },
        {
          "indexed": false,
          "internalType": "uint256",
          "name": "amountDoge",
          "type": "uint256"
        }
      ],
      "name": "egodCrossChainBuy",
      "type": "event"
    },
    {
      "stateMutability": "payable",
      "type": "fallback"
    },
    {
      "inputs": [],
      "name": "allEnabled",
      "outputs": [
        {
          "internalType": "bool",
          "name": "",
          "type": "bool"
        }
      ],
      "stateMutability": "view",
      "type": "function"
    },
    {
      "inputs": [],
      "name": "bridgeDoge",
      "outputs": [
        {
          "internalType": "contract IBridgeDoge",
          "name": "",
          "type": "address"
        }
      ],
      "stateMutability": "view",
      "type": "function"
    },
    {
      "inputs": [
        {
          "internalType": "address",
          "name": "DCTokenAddress",
          "type": "address"
        }
      ],
      "name": "doOneClickBuy",
      "outputs": [],
      "stateMutability": "payable",
      "type": "function"
    },
    {
      "inputs": [],
      "name": "doge",
      "outputs": [
        {
          "internalType": "contract IERC20",
          "name": "",
          "type": "address"
        }
      ],
      "stateMutability": "view",
      "type": "function"
    },
    {
      "inputs": [
        {
          "internalType": "address",
          "name": "",
          "type": "address"
        }
      ],
      "name": "feeByDCTokenAddressBase1000",
      "outputs": [
        {
          "internalType": "uint256",
          "name": "",
          "type": "uint256"
        }
      ],
      "stateMutability": "view",
      "type": "function"
    },
    {
      "inputs": [],
      "name": "feeEnabled",
      "outputs": [
        {
          "internalType": "bool",
          "name": "",
          "type": "bool"
        }
      ],
      "stateMutability": "view",
      "type": "function"
    },
    {
      "inputs": [
        {
          "internalType": "address",
          "name": "DCTokenAddress",
          "type": "address"
        }
      ],
      "name": "getRecieverForDCTokenAddress",
      "outputs": [
        {
          "internalType": "address",
          "name": "",
          "type": "address"
        }
      ],
      "stateMutability": "view",
      "type": "function"
    },
    {
      "inputs": [],
      "name": "getRecievers",
      "outputs": [
        {
          "internalType": "address[]",
          "name": "",
          "type": "address[]"
        }
      ],
      "stateMutability": "view",
      "type": "function"
    },
    {
      "inputs": [],
      "name": "minimumBuy",
      "outputs": [
        {
          "internalType": "uint256",
          "name": "",
          "type": "uint256"
        }
      ],
      "stateMutability": "view",
      "type": "function"
    },
    {
      "inputs": [],
      "name": "owner",
      "outputs": [
        {
          "internalType": "address",
          "name": "",
          "type": "address"
        }
      ],
      "stateMutability": "view",
      "type": "function"
    },
    {
      "inputs": [],
      "name": "pancakeswap",
      "outputs": [
        {
          "internalType": "contract IPancakeRouter02",
          "name": "",
          "type": "address"
        }
      ],
      "stateMutability": "view",
      "type": "function"
    },
    {
      "inputs": [
        {
          "internalType": "uint256",
          "name": "",
          "type": "uint256"
        }
      ],
      "name": "recievers",
      "outputs": [
        {
          "internalType": "address",
          "name": "",
          "type": "address"
        }
      ],
      "stateMutability": "view",
      "type": "function"
    },
    {
      "inputs": [
        {
          "internalType": "address",
          "name": "",
          "type": "address"
        }
      ],
      "name": "recieversByDCTokenAddress",
      "outputs": [
        {
          "internalType": "address",
          "name": "recieverAddress",
          "type": "address"
        },
        {
          "internalType": "bool",
          "name": "enabled",
          "type": "bool"
        }
      ],
      "stateMutability": "view",
      "type": "function"
    },
    {
      "inputs": [],
      "name": "renounceOwnership",
      "outputs": [],
      "stateMutability": "nonpayable",
      "type": "function"
    },
    {
      "inputs": [
        {
          "internalType": "address",
          "name": "token",
          "type": "address"
        },
        {
          "internalType": "uint256",
          "name": "amount",
          "type": "uint256"
        }
      ],
      "name": "rescue",
      "outputs": [],
      "stateMutability": "nonpayable",
      "type": "function"
    },
    {
      "inputs": [],
      "name": "rescueBnb",
      "outputs": [],
      "stateMutability": "nonpayable",
      "type": "function"
    },
    {
      "inputs": [
        {
          "internalType": "bool",
          "name": "enabled",
          "type": "bool"
        }
      ],
      "name": "setAllEnabled",
      "outputs": [],
      "stateMutability": "nonpayable",
      "type": "function"
    },
    {
      "inputs": [
        {
          "internalType": "bool",
          "name": "newFeeEnabled",
          "type": "bool"
        }
      ],
      "name": "setFeeEnabled",
      "outputs": [],
      "stateMutability": "nonpayable",
      "type": "function"
    },
    {
      "inputs": [
        {
          "internalType": "address",
          "name": "DCTokenAddress",
          "type": "address"
        },
        {
          "internalType": "uint256",
          "name": "feeBase1000",
          "type": "uint256"
        }
      ],
      "name": "setFeeForDCTokenAddress",
      "outputs": [],
      "stateMutability": "nonpayable",
      "type": "function"
    },
    {
      "inputs": [
        {
          "internalType": "uint256",
          "name": "newMinimumBuy",
          "type": "uint256"
        }
      ],
      "name": "setMinimumBuy",
      "outputs": [],
      "stateMutability": "nonpayable",
      "type": "function"
    },
    {
      "inputs": [
        {
          "internalType": "address",
          "name": "DCTokenAddress",
          "type": "address"
        },
        {
          "internalType": "bool",
          "name": "enabled",
          "type": "bool"
        }
      ],
      "name": "setRecieverEnabled",
      "outputs": [],
      "stateMutability": "nonpayable",
      "type": "function"
    },
    {
      "inputs": [
        {
          "internalType": "address",
          "name": "DCTokenAddress",
          "type": "address"
        },
        {
          "internalType": "address",
          "name": "recieverAddress",
          "type": "address"
        },
        {
          "internalType": "bool",
          "name": "enabled",
          "type": "bool"
        }
      ],
      "name": "setRecieverForDCTokenAddress",
      "outputs": [],
      "stateMutability": "nonpayable",
      "type": "function"
    },
    {
      "inputs": [
        {
          "internalType": "address",
          "name": "newOwner",
          "type": "address"
        }
      ],
      "name": "transferOwnership",
      "outputs": [],
      "stateMutability": "nonpayable",
      "type": "function"
    },
    {
      "stateMutability": "payable",
      "type": "receive"
    }
  ],
  "transactionHash": "0x7b7dc1386e633288640a9b5fc24fecd416f78364e60cf4ff25a6103989ad5af5",
  "args": [],
  "numDeployments": 11,
  "solcInputHash": "17d9b4c0e515475e0cda8cba32836293",
  "bytecode": "0x608060405267016345785d8a000060019081556002805460ff1916909117905534801561002b57600080fd5b5061003533610128565b600380547310ed43c718714eb63d5aa57b78b54704e256024e6001600160a01b0319918216179091556004805473ba2ae424d960c26247dd6c32edc70b295c744c4392168217815560028054610100600160a81b0319167462b8aeb90f3fa3a46607f266e882c4e9cb98f3da0017905560405163095ea7b360e01b81527362b8aeb90f3fa3a46607f266e882c4e9cb98f3da91810191909152600019602482015263095ea7b3906044016020604051808303816000875af11580156100fe573d6000803e3d6000fd5b505050506040513d601f19601f820116820180604052508101906101229190610178565b506101a1565b600080546001600160a01b038381166001600160a01b0319831681178455604051919092169283917f8be0079c531659141344cd1fd0a4f28419497f9722a3daafe3b4186f6b6457e09190a35050565b60006020828403121561018a57600080fd5b8151801515811461019a57600080fd5b9392505050565b6112c9806101b06000396000f3fe60806040526004361061016c5760003560e01c8063775ac896116100ca578063a771ebc711610079578063e3c61cd011610056578063e3c61cd014610469578063f2fde38b14610489578063fa944e6a146104a957005b8063a771ebc7146103ff578063c3a69b5e14610429578063e16963491461044957005b80638ee50e6f116100a75780638ee50e6f1461039a57806397c6a768146103ba5780639edc387b146103df57005b8063775ac896146103235780637a4e4ecf1461035c5780638da5cb5b1461037c57005b80635a6e28f211610126578063715018a611610103578063715018a6146102d9578063731f03fc146102ee5780637344a44d1461030e57005b80635a6e28f2146102845780636cfadb4d146102a457806370926914146102c657005b806320bab0b01161015457806320bab0b0146101be57806334809ee71461021f5780634b65cd0d1461025757005b806305785e4c146101755780630db474fa1461019e57005b3661017357005b005b34801561018157600080fd5b5061018b60015481565b6040519081526020015b60405180910390f35b3480156101aa57600080fd5b506101736101b9366004610edf565b6104c3565b3480156101ca57600080fd5b506102006101d9366004610f18565b6005602052600090815260409020546001600160a01b03811690600160a01b900460ff1682565b604080516001600160a01b039093168352901515602083015201610195565b34801561022b57600080fd5b5060045461023f906001600160a01b031681565b6040516001600160a01b039091168152602001610195565b34801561026357600080fd5b5061018b610272366004610f18565b60076020526000908152604090205481565b34801561029057600080fd5b5061017361029f366004610f35565b6104de565b3480156102b057600080fd5b506102b96105a4565b6040516101959190610fc4565b6101736102d4366004610f18565b610606565b3480156102e557600080fd5b50610173610bdd565b3480156102fa57600080fd5b50610173610309366004610fd7565b610bf1565b34801561031a57600080fd5b50610173610bfe565b34801561032f57600080fd5b5061023f61033e366004610f18565b6001600160a01b039081166000908152600560205260409020541690565b34801561036857600080fd5b50610173610377366004610ff0565b610c35565b34801561038857600080fd5b506000546001600160a01b031661023f565b3480156103a657600080fd5b5061023f6103b5366004610fd7565b610ccc565b3480156103c657600080fd5b5060025461023f9061010090046001600160a01b031681565b3480156103eb57600080fd5b506101736103fa366004610edf565b610cf6565b34801561040b57600080fd5b506008546104199060ff1681565b6040519015158152602001610195565b34801561043557600080fd5b5061017361044436600461101c565b610d11565b34801561045557600080fd5b5060035461023f906001600160a01b031681565b34801561047557600080fd5b50610173610484366004610ff0565b610d69565b34801561049557600080fd5b506101736104a4366004610f18565b610d8d565b3480156104b557600080fd5b506002546104199060ff1681565b6104cb610e1a565b6008805460ff1916911515919091179055565b6104e6610e1a565b6040805180820182526001600160a01b039384168082529215156020808301918252958516600090815260059096529185209051815492511515600160a01b027fffffffffffffffffffffff000000000000000000000000000000000000000000909316941693909317179091556006805460018101825592527ff652222313e28459528d920b65115c16c04f3efc82aaedc97be59f3f377c0d3f909101805473ffffffffffffffffffffffffffffffffffffffff19169091179055565b606060068054806020026020016040519081016040528092919081815260200182805480156105fc57602002820191906000526020600020905b81546001600160a01b031681526001909101906020018083116105de575b5050505050905090565b60025460ff1661065d5760405162461bcd60e51b815260206004820152601660248201527f45676f64584353656e6465723a2044697361626c65640000000000000000000060448201526064015b60405180910390fd5b6001600160a01b038116600090815260056020526040902054600160a01b900460ff166106cc5760405162461bcd60e51b815260206004820152601a60248201527f45676f64584353656e6465723a204e6f2072656369657665722e0000000000006044820152606401610654565b6001543410156107445760405162461bcd60e51b815260206004820152602260248201527f45676f64584353656e6465723a204d696e696d756d20627579206e6f74206d6560448201527f742e0000000000000000000000000000000000000000000000000000000000006064820152608401610654565b60408051600280825260608201835260009260208301908036833701905050905073bb4cdb9cbd36b01bd1cbaebf2de08d9173bc095c8160008151811061078d5761078d61106b565b60200260200101906001600160a01b031690816001600160a01b03168152505073ba2ae424d960c26247dd6c32edc70b295c744c43816001815181106107d5576107d561106b565b6001600160a01b0390921660209283029190910190910152600854349060ff1615610838576001600160a01b0383166000908152600760205260409020546103e8906108219082611097565b61082b90836110ae565b61083591906110cd565b90505b600480546040516370a0823160e01b815230928101929092526000916001600160a01b03909116906370a0823190602401602060405180830381865afa158015610886573d6000803e3d6000fd5b505050506040513d601f19601f820116820180604052508101906108aa91906110ef565b6003546040517f7ff36ab50000000000000000000000000000000000000000000000000000000081529192506001600160a01b031690637ff36ab59084906108fd90600090889030904290600401611108565b60006040518083038185885af115801561091b573d6000803e3d6000fd5b50505050506040513d6000823e601f3d908101601f19168201604052610944919081019061116e565b50600480546040516370a0823160e01b815230928101929092526000916001600160a01b03909116906370a0823190602401602060405180830381865afa158015610993573d6000803e3d6000fd5b505050506040513d601f19601f820116820180604052508101906109b791906110ef565b905060006109c58383611097565b6001600160a01b0380881660009081526005602090815260408083205460025482517fc12564f40000000000000000000000000000000000000000000000000000000081529251969750908516959394610100909104169263c12564f4926004808401939192918290030181865afa158015610a45573d6000803e3d6000fd5b505050506040513d601f19601f82011682018060405250810190610a6991906110ef565b6002546040517fb6d2314a0000000000000000000000000000000000000000000000000000000081526001600160a01b038581166004830152602482018790529293506101009091049091169063b6d2314a90604401600060405180830381600087803b158015610ad957600080fd5b505af1158015610aed573d6000803e3d6000fd5b50506002546040517f07444a9700000000000000000000000000000000000000000000000000000000815260048101859052600093506101009091046001600160a01b031691506307444a9790602401606060405180830381865afa158015610b5a573d6000803e3d6000fd5b505050506040513d601f19601f82011682018060405250810190610b7e9190611214565b905081896001600160a01b0316336001600160a01b03167f6876fd47a5b7f2ff6df6c405d49849b2fc6e7d2e66fa60ee365dabcf32fb902f8460200151604051610bca91815260200190565b60405180910390a4505050505050505050565b610be5610e1a565b610bef6000610e74565b565b610bf9610e1a565b600155565b610c06610e1a565b60405133904780156108fc02916000818181858888f19350505050158015610c32573d6000803e3d6000fd5b50565b610c3d610e1a565b6040517fa9059cbb000000000000000000000000000000000000000000000000000000008152336004820152602481018290526001600160a01b0383169063a9059cbb906044016020604051808303816000875af1158015610ca3573d6000803e3d6000fd5b505050506040513d601f19601f82011682018060405250810190610cc79190611276565b505050565b60068181548110610cdc57600080fd5b6000918252602090912001546001600160a01b0316905081565b610cfe610e1a565b6002805460ff1916911515919091179055565b610d19610e1a565b6001600160a01b0390911660009081526005602052604090208054911515600160a01b027fffffffffffffffffffffff00ffffffffffffffffffffffffffffffffffffffff909216919091179055565b610d71610e1a565b6001600160a01b03909116600090815260076020526040902055565b610d95610e1a565b6001600160a01b038116610e115760405162461bcd60e51b815260206004820152602660248201527f4f776e61626c653a206e6577206f776e657220697320746865207a65726f206160448201527f64647265737300000000000000000000000000000000000000000000000000006064820152608401610654565b610c3281610e74565b6000546001600160a01b03163314610bef5760405162461bcd60e51b815260206004820181905260248201527f4f776e61626c653a2063616c6c6572206973206e6f7420746865206f776e65726044820152606401610654565b600080546001600160a01b0383811673ffffffffffffffffffffffffffffffffffffffff19831681178455604051919092169283917f8be0079c531659141344cd1fd0a4f28419497f9722a3daafe3b4186f6b6457e09190a35050565b8015158114610c3257600080fd5b600060208284031215610ef157600080fd5b8135610efc81610ed1565b9392505050565b6001600160a01b0381168114610c3257600080fd5b600060208284031215610f2a57600080fd5b8135610efc81610f03565b600080600060608486031215610f4a57600080fd5b8335610f5581610f03565b92506020840135610f6581610f03565b91506040840135610f7581610ed1565b809150509250925092565b600081518084526020808501945080840160005b83811015610fb95781516001600160a01b031687529582019590820190600101610f94565b509495945050505050565b602081526000610efc6020830184610f80565b600060208284031215610fe957600080fd5b5035919050565b6000806040838503121561100357600080fd5b823561100e81610f03565b946020939093013593505050565b6000806040838503121561102f57600080fd5b823561103a81610f03565b9150602083013561104a81610ed1565b809150509250929050565b634e487b7160e01b600052604160045260246000fd5b634e487b7160e01b600052603260045260246000fd5b634e487b7160e01b600052601160045260246000fd5b6000828210156110a9576110a9611081565b500390565b60008160001904831182151516156110c8576110c8611081565b500290565b6000826110ea57634e487b7160e01b600052601260045260246000fd5b500490565b60006020828403121561110157600080fd5b5051919050565b8481526080602082015260006111216080830186610f80565b6001600160a01b03949094166040830152506060015292915050565b604051601f8201601f1916810167ffffffffffffffff8111828210171561116657611166611055565b604052919050565b6000602080838503121561118157600080fd5b825167ffffffffffffffff8082111561119957600080fd5b818501915085601f8301126111ad57600080fd5b8151818111156111bf576111bf611055565b8060051b91506111d084830161113d565b81815291830184019184810190888411156111ea57600080fd5b938501935b83851015611208578451825293850193908501906111ef565b98975050505050505050565b60006060828403121561122657600080fd5b6040516060810181811067ffffffffffffffff8211171561124957611249611055565b604052825161125781610f03565b8152602083810151908201526040928301519281019290925250919050565b60006020828403121561128857600080fd5b8151610efc81610ed156fea26469706673582212207282e13a039e2b0bcd2307e72f287dcdada6dfc6dd854c672c9689c78e1b387a64736f6c634300080a0033",
  "devdoc": {
    "kind": "dev",
    "methods": {
      "owner()": {
        "details": "Returns the address of the current owner."
      },
      "renounceOwnership()": {
        "details": "Leaves the contract without owner. It will not be possible to call `onlyOwner` functions anymore. Can only be called by the current owner. NOTE: Renouncing ownership will leave the contract without an owner, thereby removing any functionality that is only available to the owner."
      },
      "transferOwnership(address)": {
        "details": "Transfers ownership of the contract to a new account (`newOwner`). Can only be called by the current owner."
      }
    },
    "version": 1
  },
  "userdoc": {
    "kind": "user",
    "methods": {},
    "version": 1
  },
  "storageLayout": {
    "storage": [
      {
        "astId": 7,
        "contract": "contracts/EgodXCSender.sol:EgodXCSender",
        "label": "_owner",
        "offset": 0,
        "slot": "0",
        "type": "t_address"
      },
      {
        "astId": 604,
        "contract": "contracts/EgodXCSender.sol:EgodXCSender",
        "label": "minimumBuy",
        "offset": 0,
        "slot": "1",
        "type": "t_uint256"
      },
      {
        "astId": 607,
        "contract": "contracts/EgodXCSender.sol:EgodXCSender",
        "label": "allEnabled",
        "offset": 0,
        "slot": "2",
        "type": "t_bool"
      },
      {
        "astId": 610,
        "contract": "contracts/EgodXCSender.sol:EgodXCSender",
        "label": "bridgeDoge",
        "offset": 1,
        "slot": "2",
        "type": "t_contract(IBridgeDoge)1025"
      },
      {
        "astId": 613,
        "contract": "contracts/EgodXCSender.sol:EgodXCSender",
        "label": "pancakeswap",
        "offset": 0,
        "slot": "3",
        "type": "t_contract(IPancakeRouter02)1421"
      },
      {
        "astId": 616,
        "contract": "contracts/EgodXCSender.sol:EgodXCSender",
        "label": "doge",
        "offset": 0,
        "slot": "4",
        "type": "t_contract(IERC20)190"
      },
      {
        "astId": 621,
        "contract": "contracts/EgodXCSender.sol:EgodXCSender",
        "label": "recieversByDCTokenAddress",
        "offset": 0,
        "slot": "5",
        "type": "t_mapping(t_address,t_struct(DCRecieverData)593_storage)"
      },
      {
        "astId": 624,
        "contract": "contracts/EgodXCSender.sol:EgodXCSender",
        "label": "recievers",
        "offset": 0,
        "slot": "6",
        "type": "t_array(t_address)dyn_storage"
      },
      {
        "astId": 628,
        "contract": "contracts/EgodXCSender.sol:EgodXCSender",
        "label": "feeByDCTokenAddressBase1000",
        "offset": 0,
        "slot": "7",
        "type": "t_mapping(t_address,t_uint256)"
      },
      {
        "astId": 630,
        "contract": "contracts/EgodXCSender.sol:EgodXCSender",
        "label": "feeEnabled",
        "offset": 0,
        "slot": "8",
        "type": "t_bool"
      }
    ],
    "types": {
      "t_address": {
        "encoding": "inplace",
        "label": "address",
        "numberOfBytes": "20"
      },
      "t_array(t_address)dyn_storage": {
        "base": "t_address",
        "encoding": "dynamic_array",
        "label": "address[]",
        "numberOfBytes": "32"
      },
      "t_bool": {
        "encoding": "inplace",
        "label": "bool",
        "numberOfBytes": "1"
      },
      "t_contract(IBridgeDoge)1025": {
        "encoding": "inplace",
        "label": "contract IBridgeDoge",
        "numberOfBytes": "20"
      },
      "t_contract(IERC20)190": {
        "encoding": "inplace",
        "label": "contract IERC20",
        "numberOfBytes": "20"
      },
      "t_contract(IPancakeRouter02)1421": {
        "encoding": "inplace",
        "label": "contract IPancakeRouter02",
        "numberOfBytes": "20"
      },
      "t_mapping(t_address,t_struct(DCRecieverData)593_storage)": {
        "encoding": "mapping",
        "key": "t_address",
        "label": "mapping(address => struct DCRecieverData)",
        "numberOfBytes": "32",
        "value": "t_struct(DCRecieverData)593_storage"
      },
      "t_mapping(t_address,t_uint256)": {
        "encoding": "mapping",
        "key": "t_address",
        "label": "mapping(address => uint256)",
        "numberOfBytes": "32",
        "value": "t_uint256"
      },
      "t_struct(DCRecieverData)593_storage": {
        "encoding": "inplace",
        "label": "struct DCRecieverData",
        "members": [
          {
            "astId": 590,
            "contract": "contracts/EgodXCSender.sol:EgodXCSender",
            "label": "recieverAddress",
            "offset": 0,
            "slot": "0",
            "type": "t_address"
          },
          {
            "astId": 592,
            "contract": "contracts/EgodXCSender.sol:EgodXCSender",
            "label": "enabled",
            "offset": 20,
            "slot": "0",
            "type": "t_bool"
          }
        ],
        "numberOfBytes": "32"
      },
      "t_uint256": {
        "encoding": "inplace",
        "label": "uint256",
        "numberOfBytes": "32"
      }
    }
  }
}