{
  "address": "0x85e356c403aB335C100c193e9f8fec1bB124d951",
  "abi": [
    {
      "inputs": [],
      "stateMutability": "nonpayable",
      "type": "constructor"
    },
    {
      "anonymous": false,
      "inputs": [
        {
          "indexed": true,
          "internalType": "address",
          "name": "previousOwner",
          "type": "address"
        },
        {
          "indexed": true,
          "internalType": "address",
          "name": "newOwner",
          "type": "address"
        }
      ],
      "name": "OwnershipTransferred",
      "type": "event"
    },
    {
      "anonymous": false,
      "inputs": [
        {
          "indexed": true,
          "internalType": "address",
          "name": "buyer",
          "type": "address"
        },
        {
          "indexed": true,
          "internalType": "address",
          "name": "DCTokenAddress",
          "type": "address"
        },
        {
          "indexed": false,
          "internalType": "uint256",
          "name": "amountDoge",
          "type": "uint256"
        }
      ],
      "name": "egodCrossChainBuy",
      "type": "event"
    },
    {
      "stateMutability": "payable",
      "type": "fallback"
    },
    {
      "inputs": [],
      "name": "allEnabled",
      "outputs": [
        {
          "internalType": "bool",
          "name": "",
          "type": "bool"
        }
      ],
      "stateMutability": "view",
      "type": "function"
    },
    {
      "inputs": [],
      "name": "bridgeDoge",
      "outputs": [
        {
          "internalType": "contract IBridgeDoge",
          "name": "",
          "type": "address"
        }
      ],
      "stateMutability": "view",
      "type": "function"
    },
    {
      "inputs": [
        {
          "internalType": "address",
          "name": "DCTokenAddress",
          "type": "address"
        }
      ],
      "name": "doOneClickBuy",
      "outputs": [],
      "stateMutability": "payable",
      "type": "function"
    },
    {
      "inputs": [],
      "name": "doge",
      "outputs": [
        {
          "internalType": "contract IERC20",
          "name": "",
          "type": "address"
        }
      ],
      "stateMutability": "view",
      "type": "function"
    },
    {
      "inputs": [
        {
          "internalType": "address",
          "name": "DCTokenAddress",
          "type": "address"
        }
      ],
      "name": "getRecieverForDCTokenAddress",
      "outputs": [
        {
          "internalType": "address",
          "name": "",
          "type": "address"
        }
      ],
      "stateMutability": "view",
      "type": "function"
    },
    {
      "inputs": [],
      "name": "getRecievers",
      "outputs": [
        {
          "internalType": "address[]",
          "name": "",
          "type": "address[]"
        }
      ],
      "stateMutability": "view",
      "type": "function"
    },
    {
      "inputs": [],
      "name": "minimumBuy",
      "outputs": [
        {
          "internalType": "uint256",
          "name": "",
          "type": "uint256"
        }
      ],
      "stateMutability": "view",
      "type": "function"
    },
    {
      "inputs": [],
      "name": "owner",
      "outputs": [
        {
          "internalType": "address",
          "name": "",
          "type": "address"
        }
      ],
      "stateMutability": "view",
      "type": "function"
    },
    {
      "inputs": [],
      "name": "pancakeswap",
      "outputs": [
        {
          "internalType": "contract IPancakeRouter02",
          "name": "",
          "type": "address"
        }
      ],
      "stateMutability": "view",
      "type": "function"
    },
    {
      "inputs": [
        {
          "internalType": "uint256",
          "name": "",
          "type": "uint256"
        }
      ],
      "name": "recievers",
      "outputs": [
        {
          "internalType": "address",
          "name": "",
          "type": "address"
        }
      ],
      "stateMutability": "view",
      "type": "function"
    },
    {
      "inputs": [
        {
          "internalType": "address",
          "name": "",
          "type": "address"
        }
      ],
      "name": "recieversByDCTokenAddress",
      "outputs": [
        {
          "internalType": "address",
          "name": "recieverAddress",
          "type": "address"
        },
        {
          "internalType": "bool",
          "name": "enabled",
          "type": "bool"
        }
      ],
      "stateMutability": "view",
      "type": "function"
    },
    {
      "inputs": [],
      "name": "renounceOwnership",
      "outputs": [],
      "stateMutability": "nonpayable",
      "type": "function"
    },
    {
      "inputs": [
        {
          "internalType": "address",
          "name": "token",
          "type": "address"
        },
        {
          "internalType": "uint256",
          "name": "amount",
          "type": "uint256"
        }
      ],
      "name": "rescue",
      "outputs": [],
      "stateMutability": "nonpayable",
      "type": "function"
    },
    {
      "inputs": [],
      "name": "rescueBnb",
      "outputs": [],
      "stateMutability": "nonpayable",
      "type": "function"
    },
    {
      "inputs": [
        {
          "internalType": "bool",
          "name": "enabled",
          "type": "bool"
        }
      ],
      "name": "setAllEnabled",
      "outputs": [],
      "stateMutability": "nonpayable",
      "type": "function"
    },
    {
      "inputs": [
        {
          "internalType": "uint256",
          "name": "newMinimumBuy",
          "type": "uint256"
        }
      ],
      "name": "setMinimumBuy",
      "outputs": [],
      "stateMutability": "nonpayable",
      "type": "function"
    },
    {
      "inputs": [
        {
          "internalType": "address",
          "name": "DCTokenAddress",
          "type": "address"
        },
        {
          "internalType": "bool",
          "name": "enabled",
          "type": "bool"
        }
      ],
      "name": "setRecieverEnabled",
      "outputs": [],
      "stateMutability": "nonpayable",
      "type": "function"
    },
    {
      "inputs": [
        {
          "internalType": "address",
          "name": "DCTokenAddress",
          "type": "address"
        },
        {
          "internalType": "address",
          "name": "recieverAddress",
          "type": "address"
        },
        {
          "internalType": "bool",
          "name": "enabled",
          "type": "bool"
        }
      ],
      "name": "setRecieverForDCTokenAddress",
      "outputs": [],
      "stateMutability": "nonpayable",
      "type": "function"
    },
    {
      "inputs": [
        {
          "internalType": "address",
          "name": "newOwner",
          "type": "address"
        }
      ],
      "name": "transferOwnership",
      "outputs": [],
      "stateMutability": "nonpayable",
      "type": "function"
    },
    {
      "stateMutability": "payable",
      "type": "receive"
    }
  ],
  "transactionHash": "0x193869d8e4f811a4b27f4761a3ad31d2085d25fc2c3f2fbeb3a7cb0a0ad6a345",
  "args": [],
  "numDeployments": 7,
  "solcInputHash": "7ea6868fae54fa2ea5784f28a4b09ac1",
  "bytecode": "0x608060405267016345785d8a000060019081556002805460ff1916909117905534801561002b57600080fd5b5061003533610128565b600380547310ed43c718714eb63d5aa57b78b54704e256024e6001600160a01b0319918216179091556004805473ba2ae424d960c26247dd6c32edc70b295c744c4392168217815560028054610100600160a81b03191674f2d3f911fd3377dc979fdb3060d9c79da99592c40017905560405163095ea7b360e01b815273f2d3f911fd3377dc979fdb3060d9c79da99592c491810191909152600019602482015263095ea7b3906044016020604051808303816000875af11580156100fe573d6000803e3d6000fd5b505050506040513d601f19601f820116820180604052508101906101229190610178565b506101a1565b600080546001600160a01b038381166001600160a01b0319831681178455604051919092169283917f8be0079c531659141344cd1fd0a4f28419497f9722a3daafe3b4186f6b6457e09190a35050565b60006020828403121561018a57600080fd5b8151801515811461019a57600080fd5b9392505050565b610f79806101b06000396000f3fe6080604052600436106101335760003560e01c8063775ac896116100b45780639edc387b1161006e578063e169634911610056578063e169634914610399578063f2fde38b146103b9578063fa944e6a146103d957005b80639edc387b14610359578063c3a69b5e1461037957005b80638da5cb5b1161009c5780638da5cb5b146102f65780638ee50e6f1461031457806397c6a7681461033457005b8063775ac8961461029d5780637a4e4ecf146102d657005b80636cfadb4d11610105578063715018a6116100ed578063715018a614610253578063731f03fc146102685780637344a44d1461028857005b80636cfadb4d1461021e578063709269141461024057005b806305785e4c1461013c57806320bab0b01461016557806334809ee7146101c65780635a6e28f2146101fe57005b3661013a57005b005b34801561014857600080fd5b5061015260015481565b6040519081526020015b60405180910390f35b34801561017157600080fd5b506101a7610180366004610c64565b6005602052600090815260409020546001600160a01b03811690600160a01b900460ff1682565b604080516001600160a01b03909316835290151560208301520161015c565b3480156101d257600080fd5b506004546101e6906001600160a01b031681565b6040516001600160a01b03909116815260200161015c565b34801561020a57600080fd5b5061013a610219366004610c94565b610403565b34801561022a57600080fd5b506102336104c9565b60405161015c9190610d1f565b61013a61024e366004610c64565b61052b565b34801561025f57600080fd5b5061013a610978565b34801561027457600080fd5b5061013a610283366004610d32565b61098c565b34801561029457600080fd5b5061013a610999565b3480156102a957600080fd5b506101e66102b8366004610c64565b6001600160a01b039081166000908152600560205260409020541690565b3480156102e257600080fd5b5061013a6102f1366004610d4b565b6109d0565b34801561030257600080fd5b506000546001600160a01b03166101e6565b34801561032057600080fd5b506101e661032f366004610d32565b610a67565b34801561034057600080fd5b506002546101e69061010090046001600160a01b031681565b34801561036557600080fd5b5061013a610374366004610d75565b610a91565b34801561038557600080fd5b5061013a610394366004610d92565b610aac565b3480156103a557600080fd5b506003546101e6906001600160a01b031681565b3480156103c557600080fd5b5061013a6103d4366004610c64565b610b04565b3480156103e557600080fd5b506002546103f39060ff1681565b604051901515815260200161015c565b61040b610b91565b6040805180820182526001600160a01b039384168082529215156020808301918252958516600090815260059096529185209051815492511515600160a01b027fffffffffffffffffffffff000000000000000000000000000000000000000000909316941693909317179091556006805460018101825592527ff652222313e28459528d920b65115c16c04f3efc82aaedc97be59f3f377c0d3f909101805473ffffffffffffffffffffffffffffffffffffffff19169091179055565b6060600680548060200260200160405190810160405280929190818152602001828054801561052157602002820191906000526020600020905b81546001600160a01b03168152600190910190602001808311610503575b5050505050905090565b60025460ff166105825760405162461bcd60e51b815260206004820152601660248201527f45676f64584353656e6465723a2044697361626c65640000000000000000000060448201526064015b60405180910390fd5b6001600160a01b038116600090815260056020526040902054600160a01b900460ff166105f15760405162461bcd60e51b815260206004820152601a60248201527f45676f64584353656e6465723a204e6f2072656369657665722e0000000000006044820152606401610579565b6001543410156106695760405162461bcd60e51b815260206004820152602260248201527f45676f64584353656e6465723a204d696e696d756d20627579206e6f74206d6560448201527f742e0000000000000000000000000000000000000000000000000000000000006064820152608401610579565b60408051600280825260608201835260009260208301908036833701905050905073bb4cdb9cbd36b01bd1cbaebf2de08d9173bc095c816000815181106106b2576106b2610ddf565b60200260200101906001600160a01b031690816001600160a01b03168152505073ba2ae424d960c26247dd6c32edc70b295c744c43816001815181106106fa576106fa610ddf565b6001600160a01b039283166020918202929092010152600480546040516370a0823160e01b8152309281019290925260009216906370a0823190602401602060405180830381865afa158015610754573d6000803e3d6000fd5b505050506040513d601f19601f820116820180604052508101906107789190610df5565b6003546040517f7ff36ab50000000000000000000000000000000000000000000000000000000081529192506001600160a01b031690637ff36ab59034906107cb90600090879030904290600401610e0e565b60006040518083038185885af11580156107e9573d6000803e3d6000fd5b50505050506040513d6000823e601f3d908101601f191682016040526108129190810190610e43565b50600480546040516370a0823160e01b815230928101929092526000916001600160a01b03909116906370a0823190602401602060405180830381865afa158015610861573d6000803e3d6000fd5b505050506040513d601f19601f820116820180604052508101906108859190610df5565b905060006108938383610f01565b6001600160a01b03868116600090815260056020526040908190205460025491517fb6d2314a00000000000000000000000000000000000000000000000000000000815290831660048201819052602482018590529394506101009091049091169063b6d2314a90604401600060405180830381600087803b15801561091857600080fd5b505af115801561092c573d6000803e3d6000fd5b50506040518481526001600160a01b03891692503391507f8f11cd67a64c7f6a29d9184f0f57f0fbcdc618de7bc09eb99df457c1f7ea55a69060200160405180910390a3505050505050565b610980610b91565b61098a6000610beb565b565b610994610b91565b600155565b6109a1610b91565b60405133904780156108fc02916000818181858888f193505050501580156109cd573d6000803e3d6000fd5b50565b6109d8610b91565b6040517fa9059cbb000000000000000000000000000000000000000000000000000000008152336004820152602481018290526001600160a01b0383169063a9059cbb906044016020604051808303816000875af1158015610a3e573d6000803e3d6000fd5b505050506040513d601f19601f82011682018060405250810190610a629190610f26565b505050565b60068181548110610a7757600080fd5b6000918252602090912001546001600160a01b0316905081565b610a99610b91565b6002805460ff1916911515919091179055565b610ab4610b91565b6001600160a01b0390911660009081526005602052604090208054911515600160a01b027fffffffffffffffffffffff00ffffffffffffffffffffffffffffffffffffffff909216919091179055565b610b0c610b91565b6001600160a01b038116610b885760405162461bcd60e51b815260206004820152602660248201527f4f776e61626c653a206e6577206f776e657220697320746865207a65726f206160448201527f64647265737300000000000000000000000000000000000000000000000000006064820152608401610579565b6109cd81610beb565b6000546001600160a01b0316331461098a5760405162461bcd60e51b815260206004820181905260248201527f4f776e61626c653a2063616c6c6572206973206e6f7420746865206f776e65726044820152606401610579565b600080546001600160a01b0383811673ffffffffffffffffffffffffffffffffffffffff19831681178455604051919092169283917f8be0079c531659141344cd1fd0a4f28419497f9722a3daafe3b4186f6b6457e09190a35050565b80356001600160a01b0381168114610c5f57600080fd5b919050565b600060208284031215610c7657600080fd5b610c7f82610c48565b9392505050565b80151581146109cd57600080fd5b600080600060608486031215610ca957600080fd5b610cb284610c48565b9250610cc060208501610c48565b91506040840135610cd081610c86565b809150509250925092565b600081518084526020808501945080840160005b83811015610d145781516001600160a01b031687529582019590820190600101610cef565b509495945050505050565b602081526000610c7f6020830184610cdb565b600060208284031215610d4457600080fd5b5035919050565b60008060408385031215610d5e57600080fd5b610d6783610c48565b946020939093013593505050565b600060208284031215610d8757600080fd5b8135610c7f81610c86565b60008060408385031215610da557600080fd5b610dae83610c48565b91506020830135610dbe81610c86565b809150509250929050565b634e487b7160e01b600052604160045260246000fd5b634e487b7160e01b600052603260045260246000fd5b600060208284031215610e0757600080fd5b5051919050565b848152608060208201526000610e276080830186610cdb565b6001600160a01b03949094166040830152506060015292915050565b60006020808385031215610e5657600080fd5b825167ffffffffffffffff80821115610e6e57600080fd5b818501915085601f830112610e8257600080fd5b815181811115610e9457610e94610dc9565b8060051b604051601f19603f83011681018181108582111715610eb957610eb9610dc9565b604052918252848201925083810185019188831115610ed757600080fd5b938501935b82851015610ef557845184529385019392850192610edc565b98975050505050505050565b600082821015610f2157634e487b7160e01b600052601160045260246000fd5b500390565b600060208284031215610f3857600080fd5b8151610c7f81610c8656fea26469706673582212206586d1e9abe8c146fe0e8743e875eea8cc241a4b834d7efb0e90b1b313a3bbfa64736f6c634300080a0033",
  "devdoc": {
    "kind": "dev",
    "methods": {
      "owner()": {
        "details": "Returns the address of the current owner."
      },
      "renounceOwnership()": {
        "details": "Leaves the contract without owner. It will not be possible to call `onlyOwner` functions anymore. Can only be called by the current owner. NOTE: Renouncing ownership will leave the contract without an owner, thereby removing any functionality that is only available to the owner."
      },
      "transferOwnership(address)": {
        "details": "Transfers ownership of the contract to a new account (`newOwner`). Can only be called by the current owner."
      }
    },
    "version": 1
  },
  "userdoc": {
    "kind": "user",
    "methods": {},
    "version": 1
  },
  "storageLayout": {
    "storage": [
      {
        "astId": 7,
        "contract": "contracts/EgodXCSender.sol:EgodXCSender",
        "label": "_owner",
        "offset": 0,
        "slot": "0",
        "type": "t_address"
      },
      {
        "astId": 604,
        "contract": "contracts/EgodXCSender.sol:EgodXCSender",
        "label": "minimumBuy",
        "offset": 0,
        "slot": "1",
        "type": "t_uint256"
      },
      {
        "astId": 607,
        "contract": "contracts/EgodXCSender.sol:EgodXCSender",
        "label": "allEnabled",
        "offset": 0,
        "slot": "2",
        "type": "t_bool"
      },
      {
        "astId": 610,
        "contract": "contracts/EgodXCSender.sol:EgodXCSender",
        "label": "bridgeDoge",
        "offset": 1,
        "slot": "2",
        "type": "t_contract(IBridgeDoge)931"
      },
      {
        "astId": 613,
        "contract": "contracts/EgodXCSender.sol:EgodXCSender",
        "label": "pancakeswap",
        "offset": 0,
        "slot": "3",
        "type": "t_contract(IPancakeRouter02)1327"
      },
      {
        "astId": 616,
        "contract": "contracts/EgodXCSender.sol:EgodXCSender",
        "label": "doge",
        "offset": 0,
        "slot": "4",
        "type": "t_contract(IERC20)190"
      },
      {
        "astId": 621,
        "contract": "contracts/EgodXCSender.sol:EgodXCSender",
        "label": "recieversByDCTokenAddress",
        "offset": 0,
        "slot": "5",
        "type": "t_mapping(t_address,t_struct(DCRecieverData)593_storage)"
      },
      {
        "astId": 624,
        "contract": "contracts/EgodXCSender.sol:EgodXCSender",
        "label": "recievers",
        "offset": 0,
        "slot": "6",
        "type": "t_array(t_address)dyn_storage"
      }
    ],
    "types": {
      "t_address": {
        "encoding": "inplace",
        "label": "address",
        "numberOfBytes": "20"
      },
      "t_array(t_address)dyn_storage": {
        "base": "t_address",
        "encoding": "dynamic_array",
        "label": "address[]",
        "numberOfBytes": "32"
      },
      "t_bool": {
        "encoding": "inplace",
        "label": "bool",
        "numberOfBytes": "1"
      },
      "t_contract(IBridgeDoge)931": {
        "encoding": "inplace",
        "label": "contract IBridgeDoge",
        "numberOfBytes": "20"
      },
      "t_contract(IERC20)190": {
        "encoding": "inplace",
        "label": "contract IERC20",
        "numberOfBytes": "20"
      },
      "t_contract(IPancakeRouter02)1327": {
        "encoding": "inplace",
        "label": "contract IPancakeRouter02",
        "numberOfBytes": "20"
      },
      "t_mapping(t_address,t_struct(DCRecieverData)593_storage)": {
        "encoding": "mapping",
        "key": "t_address",
        "label": "mapping(address => struct DCRecieverData)",
        "numberOfBytes": "32",
        "value": "t_struct(DCRecieverData)593_storage"
      },
      "t_struct(DCRecieverData)593_storage": {
        "encoding": "inplace",
        "label": "struct DCRecieverData",
        "members": [
          {
            "astId": 590,
            "contract": "contracts/EgodXCSender.sol:EgodXCSender",
            "label": "recieverAddress",
            "offset": 0,
            "slot": "0",
            "type": "t_address"
          },
          {
            "astId": 592,
            "contract": "contracts/EgodXCSender.sol:EgodXCSender",
            "label": "enabled",
            "offset": 20,
            "slot": "0",
            "type": "t_bool"
          }
        ],
        "numberOfBytes": "32"
      },
      "t_uint256": {
        "encoding": "inplace",
        "label": "uint256",
        "numberOfBytes": "32"
      }
    }
  }
}