{
  "address": "0xf5B4E0b886A2588b1B13F943BA211D4c56960B4a",
  "abi": [
    {
      "inputs": [],
      "stateMutability": "nonpayable",
      "type": "constructor"
    },
    {
      "anonymous": false,
      "inputs": [
        {
          "indexed": true,
          "internalType": "address",
          "name": "previousOwner",
          "type": "address"
        },
        {
          "indexed": true,
          "internalType": "address",
          "name": "newOwner",
          "type": "address"
        }
      ],
      "name": "OwnershipTransferred",
      "type": "event"
    },
    {
      "anonymous": false,
      "inputs": [
        {
          "indexed": true,
          "internalType": "bytes32",
          "name": "txHash",
          "type": "bytes32"
        },
        {
          "indexed": true,
          "internalType": "uint256",
          "name": "amountWDOGE",
          "type": "uint256"
        },
        {
          "indexed": true,
          "internalType": "address",
          "name": "reciever",
          "type": "address"
        },
        {
          "indexed": false,
          "internalType": "uint256",
          "name": "amountSAVIOR",
          "type": "uint256"
        }
      ],
      "name": "buyComplete",
      "type": "event"
    },
    {
      "stateMutability": "payable",
      "type": "fallback"
    },
    {
      "inputs": [],
      "name": "dogeswap",
      "outputs": [
        {
          "internalType": "contract IDogeswapRouter",
          "name": "",
          "type": "address"
        }
      ],
      "stateMutability": "view",
      "type": "function"
    },
    {
      "inputs": [],
      "name": "egod",
      "outputs": [
        {
          "internalType": "contract IERC20",
          "name": "",
          "type": "address"
        }
      ],
      "stateMutability": "view",
      "type": "function"
    },
    {
      "inputs": [
        {
          "internalType": "bytes32",
          "name": "txHash",
          "type": "bytes32"
        }
      ],
      "name": "isProcessed",
      "outputs": [
        {
          "internalType": "bool",
          "name": "processed",
          "type": "bool"
        }
      ],
      "stateMutability": "view",
      "type": "function"
    },
    {
      "inputs": [],
      "name": "oracle",
      "outputs": [
        {
          "internalType": "address",
          "name": "",
          "type": "address"
        }
      ],
      "stateMutability": "view",
      "type": "function"
    },
    {
      "inputs": [],
      "name": "owner",
      "outputs": [
        {
          "internalType": "address",
          "name": "",
          "type": "address"
        }
      ],
      "stateMutability": "view",
      "type": "function"
    },
    {
      "inputs": [
        {
          "internalType": "bytes32",
          "name": "",
          "type": "bytes32"
        }
      ],
      "name": "proccessedTransactions",
      "outputs": [
        {
          "internalType": "bool",
          "name": "",
          "type": "bool"
        }
      ],
      "stateMutability": "view",
      "type": "function"
    },
    {
      "inputs": [
        {
          "internalType": "bytes32",
          "name": "txHash",
          "type": "bytes32"
        },
        {
          "internalType": "uint256",
          "name": "amountBUSD",
          "type": "uint256"
        },
        {
          "internalType": "address",
          "name": "reciever",
          "type": "address"
        }
      ],
      "name": "processBuy_BUSD",
      "outputs": [],
      "stateMutability": "nonpayable",
      "type": "function"
    },
    {
      "inputs": [],
      "name": "renounceOwnership",
      "outputs": [],
      "stateMutability": "nonpayable",
      "type": "function"
    },
    {
      "inputs": [
        {
          "internalType": "address",
          "name": "token",
          "type": "address"
        },
        {
          "internalType": "uint256",
          "name": "amount",
          "type": "uint256"
        }
      ],
      "name": "rescue",
      "outputs": [],
      "stateMutability": "nonpayable",
      "type": "function"
    },
    {
      "inputs": [],
      "name": "rescueWdoge",
      "outputs": [],
      "stateMutability": "nonpayable",
      "type": "function"
    },
    {
      "inputs": [
        {
          "internalType": "address",
          "name": "newOracle",
          "type": "address"
        }
      ],
      "name": "setOracleAddress",
      "outputs": [],
      "stateMutability": "nonpayable",
      "type": "function"
    },
    {
      "inputs": [
        {
          "internalType": "address",
          "name": "newOwner",
          "type": "address"
        }
      ],
      "name": "transferOwnership",
      "outputs": [],
      "stateMutability": "nonpayable",
      "type": "function"
    },
    {
      "stateMutability": "payable",
      "type": "receive"
    }
  ],
  "transactionHash": "0x0d64f79e07a8be0311738bd65edcd227513047a8c2ec412b2ae40d5d92b7c791",
  "args": [],
  "numDeployments": 1,
  "solcInputHash": "b9cedbda072cb291c68ec881f77fb86c",
  "bytecode": "0x608060405234801561001057600080fd5b5061001a33610071565b600280546001600160a01b0319908116331790915560038054821673a4ee06ce40cb7e8c04e127c1f7d3dfb7f7039c811790556004805490911673bfbb7b1d22ff521a541170cafe0c9a7f20d09c3b1790556100c1565b600080546001600160a01b038381166001600160a01b0319831681178455604051919092169283917f8be0079c531659141344cd1fd0a4f28419497f9722a3daafe3b4186f6b6457e09190a35050565b610d33806100d06000396000f3fe6080604052600436106100bf5760003560e01c80637a4e4ecf1161006e5780639d20913c1161004b5780639d20913c1461020d578063f2fde38b1461022d578063f4d0800a1461024d57005b80637a4e4ecf146101af5780637dc0d1d0146101cf5780638da5cb5b146101ef57005b80634c69c00f1161009c5780634c69c00f146101655780636b377f9314610185578063715018a61461019a57005b806311c16896146100c85780632d37a9961461010d57806343c4b9f71461014557005b366100c657005b005b3480156100d457600080fd5b506100f86100e3366004610a48565b60009081526001602052604090205460ff1690565b60405190151581526020015b60405180910390f35b34801561011957600080fd5b5060045461012d906001600160a01b031681565b6040516001600160a01b039091168152602001610104565b34801561015157600080fd5b506100c6610160366004610a7d565b61027d565b34801561017157600080fd5b506100c6610180366004610ab2565b6103e1565b34801561019157600080fd5b506100c6610418565b3480156101a657600080fd5b506100c661044f565b3480156101bb57600080fd5b506100c66101ca366004610ad4565b610463565b3480156101db57600080fd5b5060025461012d906001600160a01b031681565b3480156101fb57600080fd5b506000546001600160a01b031661012d565b34801561021957600080fd5b5060035461012d906001600160a01b031681565b34801561023957600080fd5b506100c6610248366004610ab2565b6104fa565b34801561025957600080fd5b506100f8610268366004610a48565b60016020526000908152604090205460ff1681565b6002546001600160a01b031633146103025760405162461bcd60e51b815260206004820152602360248201527f4f6e6c79206f7261636c652063616e2063616c6c20746869732066756e63746960448201527f6f6e2e000000000000000000000000000000000000000000000000000000000060648201526084015b60405180910390fd5b60008381526001602052604090205460ff16156103615760405162461bcd60e51b815260206004820152601e60248201527f5472616e73616374696f6e20616c72656164792070726f63636573736564000060448201526064016102f9565b60008381526001602081905260408220805460ff1916909117905561038583610587565b905060006103938284610785565b9050826001600160a01b031682867ff7043476b42d5c34195d44f0a64281c8105b1c902dc935734f0b73b007dd342f846040516103d291815260200190565b60405180910390a45050505050565b6103e9610991565b6002805473ffffffffffffffffffffffffffffffffffffffff19166001600160a01b0392909216919091179055565b610420610991565b60405133904780156108fc02916000818181858888f1935050505015801561044c573d6000803e3d6000fd5b50565b610457610991565b61046160006109eb565b565b61046b610991565b6040517fa9059cbb000000000000000000000000000000000000000000000000000000008152336004820152602481018290526001600160a01b0383169063a9059cbb906044016020604051808303816000875af11580156104d1573d6000803e3d6000fd5b505050506040513d601f19601f820116820180604052508101906104f59190610afe565b505050565b610502610991565b6001600160a01b03811661057e5760405162461bcd60e51b815260206004820152602660248201527f4f776e61626c653a206e6577206f776e657220697320746865207a65726f206160448201527f646472657373000000000000000000000000000000000000000000000000000060648201526084016102f9565b61044c816109eb565b6040517f095ea7b3000000000000000000000000000000000000000000000000000000008152736258c967337d3faf0c2ba3adae5656ba95419d5f600482018190526024820183905260009173332730a4f6e03d9c55829435f10360e13cfa41ff90819063095ea7b3906044016020604051808303816000875af1158015610613573d6000803e3d6000fd5b505050506040513d601f19601f820116820180604052508101906106379190610afe565b5060408051600280825260608201835260009260208301908036833701905050905073332730a4f6e03d9c55829435f10360e13cfa41ff8160008151811061068157610681610b36565b60200260200101906001600160a01b031690816001600160a01b03168152505073b7ddc6414bf4f5515b52d8bdd69973ae205ff101816001815181106106c9576106c9610b36565b6001600160a01b0392831660209182029290920101526040517f18cbafe500000000000000000000000000000000000000000000000000000000815247918516906318cbafe590610727908990600090879030904290600401610b90565b6000604051808303816000875af1158015610746573d6000803e3d6000fd5b505050506040513d6000823e601f3d908101601f1916820160405261076e9190810190610bcc565b504761077a8282610c8a565b979650505050505050565b6040805160028082526060820183526000928392919060208301908036833701905050905073b7ddc6414bf4f5515b52d8bdd69973ae205ff101816000815181106107d2576107d2610b36565b6001600160a01b03928316602091820292909201015260045482519116908290600190811061080357610803610b36565b6001600160a01b039283166020918202929092010152600480546040516370a0823160e01b81528684169281019290925260009216906370a0823190602401602060405180830381865afa15801561085f573d6000803e3d6000fd5b505050506040513d601f19601f820116820180604052508101906108839190610caf565b6003546040517f463513bc0000000000000000000000000000000000000000000000000000000081529192506001600160a01b03169063463513bc9087906108d69060009087908a904290600401610cc8565b6000604051808303818588803b1580156108ef57600080fd5b505af1158015610903573d6000803e3d6000fd5b5050600480546040516370a0823160e01b81526001600160a01b038a81169382019390935260009550911692506370a082319150602401602060405180830381865afa158015610957573d6000803e3d6000fd5b505050506040513d601f19601f8201168201806040525081019061097b9190610caf565b90506109878282610c8a565b9695505050505050565b6000546001600160a01b031633146104615760405162461bcd60e51b815260206004820181905260248201527f4f776e61626c653a2063616c6c6572206973206e6f7420746865206f776e657260448201526064016102f9565b600080546001600160a01b0383811673ffffffffffffffffffffffffffffffffffffffff19831681178455604051919092169283917f8be0079c531659141344cd1fd0a4f28419497f9722a3daafe3b4186f6b6457e09190a35050565b600060208284031215610a5a57600080fd5b5035919050565b80356001600160a01b0381168114610a7857600080fd5b919050565b600080600060608486031215610a9257600080fd5b8335925060208401359150610aa960408501610a61565b90509250925092565b600060208284031215610ac457600080fd5b610acd82610a61565b9392505050565b60008060408385031215610ae757600080fd5b610af083610a61565b946020939093013593505050565b600060208284031215610b1057600080fd5b81518015158114610acd57600080fd5b634e487b7160e01b600052604160045260246000fd5b634e487b7160e01b600052603260045260246000fd5b600081518084526020808501945080840160005b83811015610b855781516001600160a01b031687529582019590820190600101610b60565b509495945050505050565b85815284602082015260a060408201526000610baf60a0830186610b4c565b6001600160a01b0394909416606083015250608001529392505050565b60006020808385031215610bdf57600080fd5b825167ffffffffffffffff80821115610bf757600080fd5b818501915085601f830112610c0b57600080fd5b815181811115610c1d57610c1d610b20565b8060051b604051601f19603f83011681018181108582111715610c4257610c42610b20565b604052918252848201925083810185019188831115610c6057600080fd5b938501935b82851015610c7e57845184529385019392850192610c65565b98975050505050505050565b600082821015610caa57634e487b7160e01b600052601160045260246000fd5b500390565b600060208284031215610cc157600080fd5b5051919050565b848152608060208201526000610ce16080830186610b4c565b6001600160a01b0394909416604083015250606001529291505056fea264697066735822122056a64f547bf2b4241bb94df25364ff250ccf6d56c29d5adf6905db6ed90d597264736f6c634300080a0033",
  "devdoc": {
    "kind": "dev",
    "methods": {
      "owner()": {
        "details": "Returns the address of the current owner."
      },
      "renounceOwnership()": {
        "details": "Leaves the contract without owner. It will not be possible to call `onlyOwner` functions anymore. Can only be called by the current owner. NOTE: Renouncing ownership will leave the contract without an owner, thereby removing any functionality that is only available to the owner."
      },
      "transferOwnership(address)": {
        "details": "Transfers ownership of the contract to a new account (`newOwner`). Can only be called by the current owner."
      }
    },
    "version": 1
  },
  "userdoc": {
    "kind": "user",
    "methods": {},
    "version": 1
  },
  "storageLayout": {
    "storage": [
      {
        "astId": 7,
        "contract": "contracts/EgodXCReciever_BUSD.sol:EgodXCReciever_BUSD",
        "label": "_owner",
        "offset": 0,
        "slot": "0",
        "type": "t_address"
      },
      {
        "astId": 376,
        "contract": "contracts/EgodXCReciever_BUSD.sol:EgodXCReciever_BUSD",
        "label": "proccessedTransactions",
        "offset": 0,
        "slot": "1",
        "type": "t_mapping(t_bytes32,t_bool)"
      },
      {
        "astId": 378,
        "contract": "contracts/EgodXCReciever_BUSD.sol:EgodXCReciever_BUSD",
        "label": "oracle",
        "offset": 0,
        "slot": "2",
        "type": "t_address"
      },
      {
        "astId": 381,
        "contract": "contracts/EgodXCReciever_BUSD.sol:EgodXCReciever_BUSD",
        "label": "dogeswap",
        "offset": 0,
        "slot": "3",
        "type": "t_contract(IDogeswapRouter)354"
      },
      {
        "astId": 384,
        "contract": "contracts/EgodXCReciever_BUSD.sol:EgodXCReciever_BUSD",
        "label": "egod",
        "offset": 0,
        "slot": "4",
        "type": "t_contract(IERC20)190"
      }
    ],
    "types": {
      "t_address": {
        "encoding": "inplace",
        "label": "address",
        "numberOfBytes": "20"
      },
      "t_bool": {
        "encoding": "inplace",
        "label": "bool",
        "numberOfBytes": "1"
      },
      "t_bytes32": {
        "encoding": "inplace",
        "label": "bytes32",
        "numberOfBytes": "32"
      },
      "t_contract(IDogeswapRouter)354": {
        "encoding": "inplace",
        "label": "contract IDogeswapRouter",
        "numberOfBytes": "20"
      },
      "t_contract(IERC20)190": {
        "encoding": "inplace",
        "label": "contract IERC20",
        "numberOfBytes": "20"
      },
      "t_mapping(t_bytes32,t_bool)": {
        "encoding": "mapping",
        "key": "t_bytes32",
        "label": "mapping(bytes32 => bool)",
        "numberOfBytes": "32",
        "value": "t_bool"
      }
    }
  }
}