{
  "address": "0x9c555A3aB0CC57637b096b175a198D820fB8e6F8",
  "abi": [
    {
      "inputs": [],
      "stateMutability": "nonpayable",
      "type": "constructor"
    },
    {
      "anonymous": false,
      "inputs": [
        {
          "indexed": true,
          "internalType": "address",
          "name": "previousOwner",
          "type": "address"
        },
        {
          "indexed": true,
          "internalType": "address",
          "name": "newOwner",
          "type": "address"
        }
      ],
      "name": "OwnershipTransferred",
      "type": "event"
    },
    {
      "anonymous": false,
      "inputs": [
        {
          "indexed": true,
          "internalType": "address",
          "name": "buyer",
          "type": "address"
        },
        {
          "indexed": true,
          "internalType": "address",
          "name": "DCTokenAddress",
          "type": "address"
        },
        {
          "indexed": false,
          "internalType": "uint256",
          "name": "amountDoge",
          "type": "uint256"
        }
      ],
      "name": "egodCrossChainBuy",
      "type": "event"
    },
    {
      "stateMutability": "payable",
      "type": "fallback"
    },
    {
      "inputs": [],
      "name": "allEnabled",
      "outputs": [
        {
          "internalType": "bool",
          "name": "",
          "type": "bool"
        }
      ],
      "stateMutability": "view",
      "type": "function"
    },
    {
      "inputs": [],
      "name": "bridgeDoge",
      "outputs": [
        {
          "internalType": "contract IBridgeDoge",
          "name": "",
          "type": "address"
        }
      ],
      "stateMutability": "view",
      "type": "function"
    },
    {
      "inputs": [
        {
          "internalType": "address",
          "name": "DCTokenAddress",
          "type": "address"
        }
      ],
      "name": "doOneClickBuy",
      "outputs": [],
      "stateMutability": "payable",
      "type": "function"
    },
    {
      "inputs": [],
      "name": "doge",
      "outputs": [
        {
          "internalType": "contract IERC20",
          "name": "",
          "type": "address"
        }
      ],
      "stateMutability": "view",
      "type": "function"
    },
    {
      "inputs": [
        {
          "internalType": "address",
          "name": "",
          "type": "address"
        }
      ],
      "name": "feeByDCTokenAddressBase1000",
      "outputs": [
        {
          "internalType": "uint256",
          "name": "",
          "type": "uint256"
        }
      ],
      "stateMutability": "view",
      "type": "function"
    },
    {
      "inputs": [],
      "name": "feeEnabled",
      "outputs": [
        {
          "internalType": "bool",
          "name": "",
          "type": "bool"
        }
      ],
      "stateMutability": "view",
      "type": "function"
    },
    {
      "inputs": [
        {
          "internalType": "address",
          "name": "DCTokenAddress",
          "type": "address"
        }
      ],
      "name": "getRecieverForDCTokenAddress",
      "outputs": [
        {
          "internalType": "address",
          "name": "",
          "type": "address"
        }
      ],
      "stateMutability": "view",
      "type": "function"
    },
    {
      "inputs": [],
      "name": "getRecievers",
      "outputs": [
        {
          "internalType": "address[]",
          "name": "",
          "type": "address[]"
        }
      ],
      "stateMutability": "view",
      "type": "function"
    },
    {
      "inputs": [],
      "name": "minimumBuy",
      "outputs": [
        {
          "internalType": "uint256",
          "name": "",
          "type": "uint256"
        }
      ],
      "stateMutability": "view",
      "type": "function"
    },
    {
      "inputs": [],
      "name": "owner",
      "outputs": [
        {
          "internalType": "address",
          "name": "",
          "type": "address"
        }
      ],
      "stateMutability": "view",
      "type": "function"
    },
    {
      "inputs": [],
      "name": "pancakeswap",
      "outputs": [
        {
          "internalType": "contract IPancakeRouter02",
          "name": "",
          "type": "address"
        }
      ],
      "stateMutability": "view",
      "type": "function"
    },
    {
      "inputs": [
        {
          "internalType": "uint256",
          "name": "",
          "type": "uint256"
        }
      ],
      "name": "recievers",
      "outputs": [
        {
          "internalType": "address",
          "name": "",
          "type": "address"
        }
      ],
      "stateMutability": "view",
      "type": "function"
    },
    {
      "inputs": [
        {
          "internalType": "address",
          "name": "",
          "type": "address"
        }
      ],
      "name": "recieversByDCTokenAddress",
      "outputs": [
        {
          "internalType": "address",
          "name": "recieverAddress",
          "type": "address"
        },
        {
          "internalType": "bool",
          "name": "enabled",
          "type": "bool"
        }
      ],
      "stateMutability": "view",
      "type": "function"
    },
    {
      "inputs": [],
      "name": "renounceOwnership",
      "outputs": [],
      "stateMutability": "nonpayable",
      "type": "function"
    },
    {
      "inputs": [
        {
          "internalType": "address",
          "name": "token",
          "type": "address"
        },
        {
          "internalType": "uint256",
          "name": "amount",
          "type": "uint256"
        }
      ],
      "name": "rescue",
      "outputs": [],
      "stateMutability": "nonpayable",
      "type": "function"
    },
    {
      "inputs": [],
      "name": "rescueBnb",
      "outputs": [],
      "stateMutability": "nonpayable",
      "type": "function"
    },
    {
      "inputs": [
        {
          "internalType": "bool",
          "name": "enabled",
          "type": "bool"
        }
      ],
      "name": "setAllEnabled",
      "outputs": [],
      "stateMutability": "nonpayable",
      "type": "function"
    },
    {
      "inputs": [
        {
          "internalType": "bool",
          "name": "newFeeEnabled",
          "type": "bool"
        }
      ],
      "name": "setFeeEnabled",
      "outputs": [],
      "stateMutability": "nonpayable",
      "type": "function"
    },
    {
      "inputs": [
        {
          "internalType": "address",
          "name": "DCTokenAddress",
          "type": "address"
        },
        {
          "internalType": "uint256",
          "name": "feeBase1000",
          "type": "uint256"
        }
      ],
      "name": "setFeeForDCTokenAddress",
      "outputs": [],
      "stateMutability": "nonpayable",
      "type": "function"
    },
    {
      "inputs": [
        {
          "internalType": "uint256",
          "name": "newMinimumBuy",
          "type": "uint256"
        }
      ],
      "name": "setMinimumBuy",
      "outputs": [],
      "stateMutability": "nonpayable",
      "type": "function"
    },
    {
      "inputs": [
        {
          "internalType": "address",
          "name": "DCTokenAddress",
          "type": "address"
        },
        {
          "internalType": "bool",
          "name": "enabled",
          "type": "bool"
        }
      ],
      "name": "setRecieverEnabled",
      "outputs": [],
      "stateMutability": "nonpayable",
      "type": "function"
    },
    {
      "inputs": [
        {
          "internalType": "address",
          "name": "DCTokenAddress",
          "type": "address"
        },
        {
          "internalType": "address",
          "name": "recieverAddress",
          "type": "address"
        },
        {
          "internalType": "bool",
          "name": "enabled",
          "type": "bool"
        }
      ],
      "name": "setRecieverForDCTokenAddress",
      "outputs": [],
      "stateMutability": "nonpayable",
      "type": "function"
    },
    {
      "inputs": [
        {
          "internalType": "address",
          "name": "newOwner",
          "type": "address"
        }
      ],
      "name": "transferOwnership",
      "outputs": [],
      "stateMutability": "nonpayable",
      "type": "function"
    },
    {
      "stateMutability": "payable",
      "type": "receive"
    }
  ],
  "transactionHash": "0xf6f56f03e5e9d9ff0d1dc3984285232cab511943f467572b47bd82ec27df61b0",
  "args": [],
  "numDeployments": 8,
  "solcInputHash": "860704ecfc2fbfce5d70de8003c85c10",
  "bytecode": "0x608060405267016345785d8a000060019081556002805460ff1916909117905534801561002b57600080fd5b5061003533610128565b600380547310ed43c718714eb63d5aa57b78b54704e256024e6001600160a01b0319918216179091556004805473ba2ae424d960c26247dd6c32edc70b295c744c4392168217815560028054610100600160a81b03191674f2d3f911fd3377dc979fdb3060d9c79da99592c40017905560405163095ea7b360e01b815273f2d3f911fd3377dc979fdb3060d9c79da99592c491810191909152600019602482015263095ea7b3906044016020604051808303816000875af11580156100fe573d6000803e3d6000fd5b505050506040513d601f19601f820116820180604052508101906101229190610178565b506101a1565b600080546001600160a01b038381166001600160a01b0319831681178455604051919092169283917f8be0079c531659141344cd1fd0a4f28419497f9722a3daafe3b4186f6b6457e09190a35050565b60006020828403121561018a57600080fd5b8151801515811461019a57600080fd5b9392505050565b611119806101b06000396000f3fe60806040526004361061016c5760003560e01c8063775ac896116100ca578063a771ebc711610079578063e3c61cd011610056578063e3c61cd014610469578063f2fde38b14610489578063fa944e6a146104a957005b8063a771ebc7146103ff578063c3a69b5e14610429578063e16963491461044957005b80638ee50e6f116100a75780638ee50e6f1461039a57806397c6a768146103ba5780639edc387b146103df57005b8063775ac896146103235780637a4e4ecf1461035c5780638da5cb5b1461037c57005b80635a6e28f211610126578063715018a611610103578063715018a6146102d9578063731f03fc146102ee5780637344a44d1461030e57005b80635a6e28f2146102845780636cfadb4d146102a457806370926914146102c657005b806320bab0b01161015457806320bab0b0146101be57806334809ee71461021f5780634b65cd0d1461025757005b806305785e4c146101755780630db474fa1461019e57005b3661017357005b005b34801561018157600080fd5b5061018b60015481565b6040519081526020015b60405180910390f35b3480156101aa57600080fd5b506101736101b9366004610dad565b6104c3565b3480156101ca57600080fd5b506102006101d9366004610ded565b6005602052600090815260409020546001600160a01b03811690600160a01b900460ff1682565b604080516001600160a01b039093168352901515602083015201610195565b34801561022b57600080fd5b5060045461023f906001600160a01b031681565b6040516001600160a01b039091168152602001610195565b34801561026357600080fd5b5061018b610272366004610ded565b60076020526000908152604090205481565b34801561029057600080fd5b5061017361029f366004610e08565b6104de565b3480156102b057600080fd5b506102b96105a4565b6040516101959190610e93565b6101736102d4366004610ded565b610606565b3480156102e557600080fd5b50610173610aab565b3480156102fa57600080fd5b50610173610309366004610ea6565b610abf565b34801561031a57600080fd5b50610173610acc565b34801561032f57600080fd5b5061023f61033e366004610ded565b6001600160a01b039081166000908152600560205260409020541690565b34801561036857600080fd5b50610173610377366004610ebf565b610b03565b34801561038857600080fd5b506000546001600160a01b031661023f565b3480156103a657600080fd5b5061023f6103b5366004610ea6565b610b9a565b3480156103c657600080fd5b5060025461023f9061010090046001600160a01b031681565b3480156103eb57600080fd5b506101736103fa366004610dad565b610bc4565b34801561040b57600080fd5b506008546104199060ff1681565b6040519015158152602001610195565b34801561043557600080fd5b50610173610444366004610ee9565b610bdf565b34801561045557600080fd5b5060035461023f906001600160a01b031681565b34801561047557600080fd5b50610173610484366004610ebf565b610c37565b34801561049557600080fd5b506101736104a4366004610ded565b610c5b565b3480156104b557600080fd5b506002546104199060ff1681565b6104cb610ce8565b6008805460ff1916911515919091179055565b6104e6610ce8565b6040805180820182526001600160a01b039384168082529215156020808301918252958516600090815260059096529185209051815492511515600160a01b027fffffffffffffffffffffff000000000000000000000000000000000000000000909316941693909317179091556006805460018101825592527ff652222313e28459528d920b65115c16c04f3efc82aaedc97be59f3f377c0d3f909101805473ffffffffffffffffffffffffffffffffffffffff19169091179055565b606060068054806020026020016040519081016040528092919081815260200182805480156105fc57602002820191906000526020600020905b81546001600160a01b031681526001909101906020018083116105de575b5050505050905090565b60025460ff1661065d5760405162461bcd60e51b815260206004820152601660248201527f45676f64584353656e6465723a2044697361626c65640000000000000000000060448201526064015b60405180910390fd5b6001600160a01b038116600090815260056020526040902054600160a01b900460ff166106cc5760405162461bcd60e51b815260206004820152601a60248201527f45676f64584353656e6465723a204e6f2072656369657665722e0000000000006044820152606401610654565b6001543410156107445760405162461bcd60e51b815260206004820152602260248201527f45676f64584353656e6465723a204d696e696d756d20627579206e6f74206d6560448201527f742e0000000000000000000000000000000000000000000000000000000000006064820152608401610654565b60408051600280825260608201835260009260208301908036833701905050905073bb4cdb9cbd36b01bd1cbaebf2de08d9173bc095c8160008151811061078d5761078d610f36565b60200260200101906001600160a01b031690816001600160a01b03168152505073ba2ae424d960c26247dd6c32edc70b295c744c43816001815181106107d5576107d5610f36565b6001600160a01b0390921660209283029190910190910152600854349060ff1615610838576001600160a01b0383166000908152600760205260409020546103e8906108219082610f62565b61082b9083610f79565b6108359190610f98565b90505b600480546040516370a0823160e01b815230928101929092526000916001600160a01b03909116906370a0823190602401602060405180830381865afa158015610886573d6000803e3d6000fd5b505050506040513d601f19601f820116820180604052508101906108aa9190610fba565b6003546040517f7ff36ab50000000000000000000000000000000000000000000000000000000081529192506001600160a01b031690637ff36ab59084906108fd90600090889030904290600401610fd3565b60006040518083038185885af115801561091b573d6000803e3d6000fd5b50505050506040513d6000823e601f3d908101601f191682016040526109449190810190611008565b50600480546040516370a0823160e01b815230928101929092526000916001600160a01b03909116906370a0823190602401602060405180830381865afa158015610993573d6000803e3d6000fd5b505050506040513d601f19601f820116820180604052508101906109b79190610fba565b905060006109c58383610f62565b6001600160a01b03878116600090815260056020526040908190205460025491517fb6d2314a00000000000000000000000000000000000000000000000000000000815290831660048201819052602482018590529394506101009091049091169063b6d2314a90604401600060405180830381600087803b158015610a4a57600080fd5b505af1158015610a5e573d6000803e3d6000fd5b50506040518481526001600160a01b038a1692503391507f8f11cd67a64c7f6a29d9184f0f57f0fbcdc618de7bc09eb99df457c1f7ea55a69060200160405180910390a350505050505050565b610ab3610ce8565b610abd6000610d42565b565b610ac7610ce8565b600155565b610ad4610ce8565b60405133904780156108fc02916000818181858888f19350505050158015610b00573d6000803e3d6000fd5b50565b610b0b610ce8565b6040517fa9059cbb000000000000000000000000000000000000000000000000000000008152336004820152602481018290526001600160a01b0383169063a9059cbb906044016020604051808303816000875af1158015610b71573d6000803e3d6000fd5b505050506040513d601f19601f82011682018060405250810190610b9591906110c6565b505050565b60068181548110610baa57600080fd5b6000918252602090912001546001600160a01b0316905081565b610bcc610ce8565b6002805460ff1916911515919091179055565b610be7610ce8565b6001600160a01b0390911660009081526005602052604090208054911515600160a01b027fffffffffffffffffffffff00ffffffffffffffffffffffffffffffffffffffff909216919091179055565b610c3f610ce8565b6001600160a01b03909116600090815260076020526040902055565b610c63610ce8565b6001600160a01b038116610cdf5760405162461bcd60e51b815260206004820152602660248201527f4f776e61626c653a206e6577206f776e657220697320746865207a65726f206160448201527f64647265737300000000000000000000000000000000000000000000000000006064820152608401610654565b610b0081610d42565b6000546001600160a01b03163314610abd5760405162461bcd60e51b815260206004820181905260248201527f4f776e61626c653a2063616c6c6572206973206e6f7420746865206f776e65726044820152606401610654565b600080546001600160a01b0383811673ffffffffffffffffffffffffffffffffffffffff19831681178455604051919092169283917f8be0079c531659141344cd1fd0a4f28419497f9722a3daafe3b4186f6b6457e09190a35050565b8015158114610b0057600080fd5b600060208284031215610dbf57600080fd5b8135610dca81610d9f565b9392505050565b80356001600160a01b0381168114610de857600080fd5b919050565b600060208284031215610dff57600080fd5b610dca82610dd1565b600080600060608486031215610e1d57600080fd5b610e2684610dd1565b9250610e3460208501610dd1565b91506040840135610e4481610d9f565b809150509250925092565b600081518084526020808501945080840160005b83811015610e885781516001600160a01b031687529582019590820190600101610e63565b509495945050505050565b602081526000610dca6020830184610e4f565b600060208284031215610eb857600080fd5b5035919050565b60008060408385031215610ed257600080fd5b610edb83610dd1565b946020939093013593505050565b60008060408385031215610efc57600080fd5b610f0583610dd1565b91506020830135610f1581610d9f565b809150509250929050565b634e487b7160e01b600052604160045260246000fd5b634e487b7160e01b600052603260045260246000fd5b634e487b7160e01b600052601160045260246000fd5b600082821015610f7457610f74610f4c565b500390565b6000816000190483118215151615610f9357610f93610f4c565b500290565b600082610fb557634e487b7160e01b600052601260045260246000fd5b500490565b600060208284031215610fcc57600080fd5b5051919050565b848152608060208201526000610fec6080830186610e4f565b6001600160a01b03949094166040830152506060015292915050565b6000602080838503121561101b57600080fd5b825167ffffffffffffffff8082111561103357600080fd5b818501915085601f83011261104757600080fd5b81518181111561105957611059610f20565b8060051b604051601f19603f8301168101818110858211171561107e5761107e610f20565b60405291825284820192508381018501918883111561109c57600080fd5b938501935b828510156110ba578451845293850193928501926110a1565b98975050505050505050565b6000602082840312156110d857600080fd5b8151610dca81610d9f56fea2646970667358221220c7e1f7ca58ae70acf7460134d1cd416f7c13baa7ef100a0e1bacbeb037325e7364736f6c634300080a0033",
  "devdoc": {
    "kind": "dev",
    "methods": {
      "owner()": {
        "details": "Returns the address of the current owner."
      },
      "renounceOwnership()": {
        "details": "Leaves the contract without owner. It will not be possible to call `onlyOwner` functions anymore. Can only be called by the current owner. NOTE: Renouncing ownership will leave the contract without an owner, thereby removing any functionality that is only available to the owner."
      },
      "transferOwnership(address)": {
        "details": "Transfers ownership of the contract to a new account (`newOwner`). Can only be called by the current owner."
      }
    },
    "version": 1
  },
  "userdoc": {
    "kind": "user",
    "methods": {},
    "version": 1
  },
  "storageLayout": {
    "storage": [
      {
        "astId": 7,
        "contract": "contracts/EgodXCSender.sol:EgodXCSender",
        "label": "_owner",
        "offset": 0,
        "slot": "0",
        "type": "t_address"
      },
      {
        "astId": 604,
        "contract": "contracts/EgodXCSender.sol:EgodXCSender",
        "label": "minimumBuy",
        "offset": 0,
        "slot": "1",
        "type": "t_uint256"
      },
      {
        "astId": 607,
        "contract": "contracts/EgodXCSender.sol:EgodXCSender",
        "label": "allEnabled",
        "offset": 0,
        "slot": "2",
        "type": "t_bool"
      },
      {
        "astId": 610,
        "contract": "contracts/EgodXCSender.sol:EgodXCSender",
        "label": "bridgeDoge",
        "offset": 1,
        "slot": "2",
        "type": "t_contract(IBridgeDoge)985"
      },
      {
        "astId": 613,
        "contract": "contracts/EgodXCSender.sol:EgodXCSender",
        "label": "pancakeswap",
        "offset": 0,
        "slot": "3",
        "type": "t_contract(IPancakeRouter02)1381"
      },
      {
        "astId": 616,
        "contract": "contracts/EgodXCSender.sol:EgodXCSender",
        "label": "doge",
        "offset": 0,
        "slot": "4",
        "type": "t_contract(IERC20)190"
      },
      {
        "astId": 621,
        "contract": "contracts/EgodXCSender.sol:EgodXCSender",
        "label": "recieversByDCTokenAddress",
        "offset": 0,
        "slot": "5",
        "type": "t_mapping(t_address,t_struct(DCRecieverData)593_storage)"
      },
      {
        "astId": 624,
        "contract": "contracts/EgodXCSender.sol:EgodXCSender",
        "label": "recievers",
        "offset": 0,
        "slot": "6",
        "type": "t_array(t_address)dyn_storage"
      },
      {
        "astId": 628,
        "contract": "contracts/EgodXCSender.sol:EgodXCSender",
        "label": "feeByDCTokenAddressBase1000",
        "offset": 0,
        "slot": "7",
        "type": "t_mapping(t_address,t_uint256)"
      },
      {
        "astId": 630,
        "contract": "contracts/EgodXCSender.sol:EgodXCSender",
        "label": "feeEnabled",
        "offset": 0,
        "slot": "8",
        "type": "t_bool"
      }
    ],
    "types": {
      "t_address": {
        "encoding": "inplace",
        "label": "address",
        "numberOfBytes": "20"
      },
      "t_array(t_address)dyn_storage": {
        "base": "t_address",
        "encoding": "dynamic_array",
        "label": "address[]",
        "numberOfBytes": "32"
      },
      "t_bool": {
        "encoding": "inplace",
        "label": "bool",
        "numberOfBytes": "1"
      },
      "t_contract(IBridgeDoge)985": {
        "encoding": "inplace",
        "label": "contract IBridgeDoge",
        "numberOfBytes": "20"
      },
      "t_contract(IERC20)190": {
        "encoding": "inplace",
        "label": "contract IERC20",
        "numberOfBytes": "20"
      },
      "t_contract(IPancakeRouter02)1381": {
        "encoding": "inplace",
        "label": "contract IPancakeRouter02",
        "numberOfBytes": "20"
      },
      "t_mapping(t_address,t_struct(DCRecieverData)593_storage)": {
        "encoding": "mapping",
        "key": "t_address",
        "label": "mapping(address => struct DCRecieverData)",
        "numberOfBytes": "32",
        "value": "t_struct(DCRecieverData)593_storage"
      },
      "t_mapping(t_address,t_uint256)": {
        "encoding": "mapping",
        "key": "t_address",
        "label": "mapping(address => uint256)",
        "numberOfBytes": "32",
        "value": "t_uint256"
      },
      "t_struct(DCRecieverData)593_storage": {
        "encoding": "inplace",
        "label": "struct DCRecieverData",
        "members": [
          {
            "astId": 590,
            "contract": "contracts/EgodXCSender.sol:EgodXCSender",
            "label": "recieverAddress",
            "offset": 0,
            "slot": "0",
            "type": "t_address"
          },
          {
            "astId": 592,
            "contract": "contracts/EgodXCSender.sol:EgodXCSender",
            "label": "enabled",
            "offset": 20,
            "slot": "0",
            "type": "t_bool"
          }
        ],
        "numberOfBytes": "32"
      },
      "t_uint256": {
        "encoding": "inplace",
        "label": "uint256",
        "numberOfBytes": "32"
      }
    }
  }
}