{
  "address": "0x2911B5A29B040Fb98d0eE69e330Bf6d6ACB3b8db",
  "abi": [
    {
      "inputs": [],
      "stateMutability": "nonpayable",
      "type": "constructor"
    },
    {
      "anonymous": false,
      "inputs": [
        {
          "indexed": true,
          "internalType": "address",
          "name": "previousOwner",
          "type": "address"
        },
        {
          "indexed": true,
          "internalType": "address",
          "name": "newOwner",
          "type": "address"
        }
      ],
      "name": "OwnershipTransferred",
      "type": "event"
    },
    {
      "anonymous": false,
      "inputs": [
        {
          "indexed": true,
          "internalType": "address",
          "name": "buyer",
          "type": "address"
        },
        {
          "indexed": true,
          "internalType": "address",
          "name": "DCTokenAddress",
          "type": "address"
        },
        {
          "indexed": true,
          "internalType": "uint256",
          "name": "bridgeId",
          "type": "uint256"
        },
        {
          "indexed": false,
          "internalType": "uint256",
          "name": "amountDoge",
          "type": "uint256"
        }
      ],
      "name": "egodCrossChainBuy_BridgeDoge",
      "type": "event"
    },
    {
      "anonymous": false,
      "inputs": [
        {
          "indexed": true,
          "internalType": "address",
          "name": "buyer",
          "type": "address"
        },
        {
          "indexed": true,
          "internalType": "address",
          "name": "DCTokenAddress",
          "type": "address"
        },
        {
          "indexed": false,
          "internalType": "uint256",
          "name": "amountBUSD",
          "type": "uint256"
        }
      ],
      "name": "egodCrossChainBuy_Synapse_BUSD",
      "type": "event"
    },
    {
      "stateMutability": "payable",
      "type": "fallback"
    },
    {
      "inputs": [],
      "name": "bridgeDoge",
      "outputs": [
        {
          "internalType": "contract IBridgeDoge",
          "name": "",
          "type": "address"
        }
      ],
      "stateMutability": "view",
      "type": "function"
    },
    {
      "inputs": [],
      "name": "doge",
      "outputs": [
        {
          "internalType": "contract IERC20",
          "name": "",
          "type": "address"
        }
      ],
      "stateMutability": "view",
      "type": "function"
    },
    {
      "inputs": [],
      "name": "dogechainRecieverAddress_BUSD",
      "outputs": [
        {
          "internalType": "address",
          "name": "",
          "type": "address"
        }
      ],
      "stateMutability": "view",
      "type": "function"
    },
    {
      "inputs": [],
      "name": "dogechainRecieverAddress_doge",
      "outputs": [
        {
          "internalType": "address",
          "name": "",
          "type": "address"
        }
      ],
      "stateMutability": "view",
      "type": "function"
    },
    {
      "inputs": [],
      "name": "enabled",
      "outputs": [
        {
          "internalType": "bool",
          "name": "",
          "type": "bool"
        }
      ],
      "stateMutability": "view",
      "type": "function"
    },
    {
      "inputs": [],
      "name": "minimumBuy",
      "outputs": [
        {
          "internalType": "uint256",
          "name": "",
          "type": "uint256"
        }
      ],
      "stateMutability": "view",
      "type": "function"
    },
    {
      "inputs": [],
      "name": "owner",
      "outputs": [
        {
          "internalType": "address",
          "name": "",
          "type": "address"
        }
      ],
      "stateMutability": "view",
      "type": "function"
    },
    {
      "inputs": [],
      "name": "pancakeswap",
      "outputs": [
        {
          "internalType": "contract IPancakeRouter02",
          "name": "",
          "type": "address"
        }
      ],
      "stateMutability": "view",
      "type": "function"
    },
    {
      "inputs": [],
      "name": "renounceOwnership",
      "outputs": [],
      "stateMutability": "nonpayable",
      "type": "function"
    },
    {
      "inputs": [],
      "name": "rescueBnb",
      "outputs": [],
      "stateMutability": "nonpayable",
      "type": "function"
    },
    {
      "inputs": [
        {
          "internalType": "contract IERC20",
          "name": "token",
          "type": "address"
        }
      ],
      "name": "rescueToken",
      "outputs": [],
      "stateMutability": "nonpayable",
      "type": "function"
    },
    {
      "inputs": [
        {
          "internalType": "bool",
          "name": "newEnabled",
          "type": "bool"
        }
      ],
      "name": "setAllEnabled",
      "outputs": [],
      "stateMutability": "nonpayable",
      "type": "function"
    },
    {
      "inputs": [
        {
          "internalType": "uint256",
          "name": "newMinimumBuy",
          "type": "uint256"
        }
      ],
      "name": "setMinimumBuy",
      "outputs": [],
      "stateMutability": "nonpayable",
      "type": "function"
    },
    {
      "inputs": [
        {
          "internalType": "address",
          "name": "_recieverAddress",
          "type": "address"
        }
      ],
      "name": "setReciever_BUSD",
      "outputs": [],
      "stateMutability": "nonpayable",
      "type": "function"
    },
    {
      "inputs": [
        {
          "internalType": "address",
          "name": "_recieverAddress",
          "type": "address"
        }
      ],
      "name": "setReciever_Doge",
      "outputs": [],
      "stateMutability": "nonpayable",
      "type": "function"
    },
    {
      "inputs": [
        {
          "internalType": "address",
          "name": "newOwner",
          "type": "address"
        }
      ],
      "name": "transferOwnership",
      "outputs": [],
      "stateMutability": "nonpayable",
      "type": "function"
    },
    {
      "inputs": [
        {
          "internalType": "address",
          "name": "DCTokenAddress",
          "type": "address"
        }
      ],
      "name": "transmute_BridgeDoge",
      "outputs": [],
      "stateMutability": "payable",
      "type": "function"
    },
    {
      "inputs": [
        {
          "internalType": "address",
          "name": "DCTokenAddress",
          "type": "address"
        }
      ],
      "name": "transmute_Synapse",
      "outputs": [],
      "stateMutability": "payable",
      "type": "function"
    },
    {
      "stateMutability": "payable",
      "type": "receive"
    }
  ],
  "transactionHash": "0x6b20803d625d04c5669a2b20c3ef2df5b4a5facaaa3db337f594b8c49125aaef",
  "args": [],
  "numDeployments": 16,
  "solcInputHash": "8151f12b39ad2e495b3bc52f4c20cd5e",
  "bytecode": "0x608060405267016345785d8a000060019081556002805460ff1916909117905534801561002b57600080fd5b5061003533610128565b600380547310ed43c718714eb63d5aa57b78b54704e256024e6001600160a01b0319918216179091556004805473ba2ae424d960c26247dd6c32edc70b295c744c4392168217815560028054610100600160a81b03191674b49d69115dbfe69f86f897c7a340a4d5f68f3b0c0017905560405163095ea7b360e01b815273b49d69115dbfe69f86f897c7a340a4d5f68f3b0c91810191909152600019602482015263095ea7b3906044016020604051808303816000875af11580156100fe573d6000803e3d6000fd5b505050506040513d601f19601f820116820180604052508101906101229190610178565b506101a1565b600080546001600160a01b038381166001600160a01b0319831681178455604051919092169283917f8be0079c531659141344cd1fd0a4f28419497f9722a3daafe3b4186f6b6457e09190a35050565b60006020828403121561018a57600080fd5b8151801515811461019a57600080fd5b9392505050565b6112a8806101b06000396000f3fe60806040526004361061011b5760003560e01c80637344a44d1161009c578063b6d795371161006e578063cd49a5b411610056578063cd49a5b414610302578063e169634914610322578063f2fde38b1461034257005b8063b6d79537146102c2578063c453927c146102e257005b80637344a44d1461024a5780638da5cb5b1461025f57806397c6a7681461027d5780639edc387b146102a257005b80634460d3cf116100ed5780635076c6f6116100d55780635076c6f6146101f5578063715018a614610215578063731f03fc1461022a57005b80634460d3cf146101c25780634db05cff146101e257005b806305785e4c146101245780632183eddf1461014d578063238dafe01461016057806334809ee71461018a57005b3661012257005b005b34801561013057600080fd5b5061013a60015481565b6040519081526020015b60405180910390f35b61012261015b366004610fc0565b610362565b34801561016c57600080fd5b5060025461017a9060ff1681565b6040519015158152602001610144565b34801561019657600080fd5b506004546101aa906001600160a01b031681565b6040516001600160a01b039091168152602001610144565b3480156101ce57600080fd5b506101226101dd366004610fc0565b610422565b6101226101f0366004610fc0565b610527565b34801561020157600080fd5b506006546101aa906001600160a01b031681565b34801561022157600080fd5b506101226105df565b34801561023657600080fd5b50610122610245366004610fe4565b6105f3565b34801561025657600080fd5b50610122610600565b34801561026b57600080fd5b506000546001600160a01b03166101aa565b34801561028957600080fd5b506002546101aa9061010090046001600160a01b031681565b3480156102ae57600080fd5b506101226102bd36600461100b565b610634565b3480156102ce57600080fd5b506005546101aa906001600160a01b031681565b3480156102ee57600080fd5b506101226102fd366004610fc0565b61064f565b34801561030e57600080fd5b5061012261031d366004610fc0565b610686565b34801561032e57600080fd5b506003546101aa906001600160a01b031681565b34801561034e57600080fd5b5061012261035d366004610fc0565b6106bd565b60025460ff166103b95760405162461bcd60e51b815260206004820152601660248201527f45676f64584353656e6465723a2044697361626c65640000000000000000000060448201526064015b60405180910390fd5b6001543410156104165760405162461bcd60e51b815260206004820152602260248201527f45676f64584353656e6465723a204d696e696d756d20627579206e6f74206d656044820152613a1760f11b60648201526084016103b0565b61041f8161074a565b50565b61042a610b52565b6040516370a0823160e01b81523060048201526001600160a01b0382169063a9059cbb90339083906370a0823190602401602060405180830381865afa158015610478573d6000803e3d6000fd5b505050506040513d601f19601f8201168201806040525081019061049c9190611028565b6040517fffffffff0000000000000000000000000000000000000000000000000000000060e085901b1681526001600160a01b03909216600483015260248201526044016020604051808303816000875af11580156104ff573d6000803e3d6000fd5b505050506040513d601f19601f820116820180604052508101906105239190611041565b5050565b60025460ff166105795760405162461bcd60e51b815260206004820152601660248201527f45676f64584353656e6465723a2044697361626c65640000000000000000000060448201526064016103b0565b6001543410156105d65760405162461bcd60e51b815260206004820152602260248201527f45676f64584353656e6465723a204d696e696d756d20627579206e6f74206d656044820152613a1760f11b60648201526084016103b0565b61041f81610bac565b6105e7610b52565b6105f16000610f4e565b565b6105fb610b52565b600155565b610608610b52565b60405133904780156108fc02916000818181858888f1935050505015801561041f573d6000803e3d6000fd5b61063c610b52565b6002805460ff1916911515919091179055565b610657610b52565b6005805473ffffffffffffffffffffffffffffffffffffffff19166001600160a01b0392909216919091179055565b61068e610b52565b6006805473ffffffffffffffffffffffffffffffffffffffff19166001600160a01b0392909216919091179055565b6106c5610b52565b6001600160a01b0381166107415760405162461bcd60e51b815260206004820152602660248201527f4f776e61626c653a206e6577206f776e657220697320746865207a65726f206160448201527f646472657373000000000000000000000000000000000000000000000000000060648201526084016103b0565b61041f81610f4e565b60408051600280825260608201835260009260208301908036833701905050905073bb4cdb9cbd36b01bd1cbaebf2de08d9173bc095c8160008151811061079357610793611074565b60200260200101906001600160a01b031690816001600160a01b03168152505073ba2ae424d960c26247dd6c32edc70b295c744c43816001815181106107db576107db611074565b6001600160a01b039283166020918202929092010152600480546040516370a0823160e01b8152309281019290925260009216906370a0823190602401602060405180830381865afa158015610835573d6000803e3d6000fd5b505050506040513d601f19601f820116820180604052508101906108599190611028565b6003549091506001600160a01b0316637ff36ab5346000853061087d4260016110a0565b6040518663ffffffff1660e01b815260040161089c94939291906110b8565b60006040518083038185885af11580156108ba573d6000803e3d6000fd5b50505050506040513d6000823e601f3d908101601f191682016040526108e39190810190611153565b50600480546040516370a0823160e01b815230928101929092526000916001600160a01b03909116906370a0823190602401602060405180830381865afa158015610932573d6000803e3d6000fd5b505050506040513d601f19601f820116820180604052508101906109569190611028565b9050600061096483836111f9565b90506000600260019054906101000a90046001600160a01b03166001600160a01b031663c12564f46040518163ffffffff1660e01b8152600401602060405180830381865afa1580156109bb573d6000803e3d6000fd5b505050506040513d601f19601f820116820180604052508101906109df9190611028565b6002546005546040517fb6d2314a0000000000000000000000000000000000000000000000000000000081526001600160a01b03918216600482015260248101869052929350610100909104169063b6d2314a90604401600060405180830381600087803b158015610a5057600080fd5b505af1158015610a64573d6000803e3d6000fd5b50506002546040517f07444a9700000000000000000000000000000000000000000000000000000000815260048101859052600093506101009091046001600160a01b031691506307444a9790602401606060405180830381865afa158015610ad1573d6000803e3d6000fd5b505050506040513d601f19601f82011682018060405250810190610af59190611210565b905081876001600160a01b0316336001600160a01b03167fa2c2a342522df2999f93371cebd312ce9a4660e3c2ceaed3c389e798f90b19698460200151604051610b4191815260200190565b60405180910390a450505050505050565b6000546001600160a01b031633146105f15760405162461bcd60e51b815260206004820181905260248201527f4f776e61626c653a2063616c6c6572206973206e6f7420746865206f776e657260448201526064016103b0565b60408051600280825260608201835260009260208301908036833701905050905073bb4cdb9cbd36b01bd1cbaebf2de08d9173bc095c81600081518110610bf557610bf5611074565b60200260200101906001600160a01b031690816001600160a01b03168152505073e9e7cea3dedca5984780bafc599bd69add087d5681600181518110610c3d57610c3d611074565b6001600160a01b0392909216602092830291909101909101526040516370a0823160e01b815230600482015273e9e7cea3dedca5984780bafc599bd69add087d569060009082906370a0823190602401602060405180830381865afa158015610caa573d6000803e3d6000fd5b505050506040513d601f19601f82011682018060405250810190610cce9190611028565b6003549091506001600160a01b0316637ff36ab53460008630610cf24260016110a0565b6040518663ffffffff1660e01b8152600401610d1194939291906110b8565b60006040518083038185885af1158015610d2f573d6000803e3d6000fd5b50505050506040513d6000823e601f3d908101601f19168201604052610d589190810190611153565b506040516370a0823160e01b81523060048201526000906001600160a01b038416906370a0823190602401602060405180830381865afa158015610da0573d6000803e3d6000fd5b505050506040513d601f19601f82011682018060405250810190610dc49190611028565b90506000610dd283836111f9565b6040517f095ea7b300000000000000000000000000000000000000000000000000000000815273d123f70ae324d34a9e76b67a27bf77593ba8749f60048201819052602482018390529192506001600160a01b0386169063095ea7b3906044016020604051808303816000875af1158015610e51573d6000803e3d6000fd5b505050506040513d601f19601f82011682018060405250810190610e759190611041565b506006546040517f90d250740000000000000000000000000000000000000000000000000000000081526001600160a01b0391821660048201526107d06024820152868216604482015260648101849052908216906390d2507490608401600060405180830381600087803b158015610eed57600080fd5b505af1158015610f01573d6000803e3d6000fd5b50506040518481526001600160a01b038a1692503391507f7f3fee40da7d367ad9473de02a3c4da0896d303d3f7c0731256e645bc19df7719060200160405180910390a350505050505050565b600080546001600160a01b0383811673ffffffffffffffffffffffffffffffffffffffff19831681178455604051919092169283917f8be0079c531659141344cd1fd0a4f28419497f9722a3daafe3b4186f6b6457e09190a35050565b6001600160a01b038116811461041f57600080fd5b600060208284031215610fd257600080fd5b8135610fdd81610fab565b9392505050565b600060208284031215610ff657600080fd5b5035919050565b801515811461041f57600080fd5b60006020828403121561101d57600080fd5b8135610fdd81610ffd565b60006020828403121561103a57600080fd5b5051919050565b60006020828403121561105357600080fd5b8151610fdd81610ffd565b634e487b7160e01b600052604160045260246000fd5b634e487b7160e01b600052603260045260246000fd5b634e487b7160e01b600052601160045260246000fd5b600082198211156110b3576110b361108a565b500190565b600060808201868352602060808185015281875180845260a086019150828901935060005b818110156111025784516001600160a01b0316835293830193918301916001016110dd565b50506001600160a01b039690961660408501525050506060015292915050565b604051601f8201601f1916810167ffffffffffffffff8111828210171561114b5761114b61105e565b604052919050565b6000602080838503121561116657600080fd5b825167ffffffffffffffff8082111561117e57600080fd5b818501915085601f83011261119257600080fd5b8151818111156111a4576111a461105e565b8060051b91506111b5848301611122565b81815291830184019184810190888411156111cf57600080fd5b938501935b838510156111ed578451825293850193908501906111d4565b98975050505050505050565b60008282101561120b5761120b61108a565b500390565b60006060828403121561122257600080fd5b6040516060810181811067ffffffffffffffff821117156112455761124561105e565b604052825161125381610fab565b815260208381015190820152604092830151928101929092525091905056fea26469706673582212203d38012f0557dc539e9803eaf0049177d0e7b95c017948bb43b2501552cfbfa964736f6c634300080a0033",
  "devdoc": {
    "kind": "dev",
    "methods": {
      "owner()": {
        "details": "Returns the address of the current owner."
      },
      "renounceOwnership()": {
        "details": "Leaves the contract without owner. It will not be possible to call `onlyOwner` functions anymore. Can only be called by the current owner. NOTE: Renouncing ownership will leave the contract without an owner, thereby removing any functionality that is only available to the owner."
      },
      "transferOwnership(address)": {
        "details": "Transfers ownership of the contract to a new account (`newOwner`). Can only be called by the current owner."
      }
    },
    "version": 1
  },
  "userdoc": {
    "kind": "user",
    "methods": {},
    "version": 1
  },
  "storageLayout": {
    "storage": [
      {
        "astId": 7,
        "contract": "contracts/EgodXCSender.sol:EgodXCSender",
        "label": "_owner",
        "offset": 0,
        "slot": "0",
        "type": "t_address"
      },
      {
        "astId": 953,
        "contract": "contracts/EgodXCSender.sol:EgodXCSender",
        "label": "minimumBuy",
        "offset": 0,
        "slot": "1",
        "type": "t_uint256"
      },
      {
        "astId": 956,
        "contract": "contracts/EgodXCSender.sol:EgodXCSender",
        "label": "enabled",
        "offset": 0,
        "slot": "2",
        "type": "t_bool"
      },
      {
        "astId": 959,
        "contract": "contracts/EgodXCSender.sol:EgodXCSender",
        "label": "bridgeDoge",
        "offset": 1,
        "slot": "2",
        "type": "t_contract(IBridgeDoge)1416"
      },
      {
        "astId": 962,
        "contract": "contracts/EgodXCSender.sol:EgodXCSender",
        "label": "pancakeswap",
        "offset": 0,
        "slot": "3",
        "type": "t_contract(IPancakeRouter02)2117"
      },
      {
        "astId": 965,
        "contract": "contracts/EgodXCSender.sol:EgodXCSender",
        "label": "doge",
        "offset": 0,
        "slot": "4",
        "type": "t_contract(IERC20)190"
      },
      {
        "astId": 967,
        "contract": "contracts/EgodXCSender.sol:EgodXCSender",
        "label": "dogechainRecieverAddress_doge",
        "offset": 0,
        "slot": "5",
        "type": "t_address"
      },
      {
        "astId": 969,
        "contract": "contracts/EgodXCSender.sol:EgodXCSender",
        "label": "dogechainRecieverAddress_BUSD",
        "offset": 0,
        "slot": "6",
        "type": "t_address"
      }
    ],
    "types": {
      "t_address": {
        "encoding": "inplace",
        "label": "address",
        "numberOfBytes": "20"
      },
      "t_bool": {
        "encoding": "inplace",
        "label": "bool",
        "numberOfBytes": "1"
      },
      "t_contract(IBridgeDoge)1416": {
        "encoding": "inplace",
        "label": "contract IBridgeDoge",
        "numberOfBytes": "20"
      },
      "t_contract(IERC20)190": {
        "encoding": "inplace",
        "label": "contract IERC20",
        "numberOfBytes": "20"
      },
      "t_contract(IPancakeRouter02)2117": {
        "encoding": "inplace",
        "label": "contract IPancakeRouter02",
        "numberOfBytes": "20"
      },
      "t_uint256": {
        "encoding": "inplace",
        "label": "uint256",
        "numberOfBytes": "32"
      }
    }
  }
}