{
  "address": "0xAbcff2BC7C27BC0F3b6F8b7c84212f52Fe66F0b8",
  "abi": [
    {
      "inputs": [],
      "stateMutability": "nonpayable",
      "type": "constructor"
    },
    {
      "anonymous": false,
      "inputs": [
        {
          "indexed": true,
          "internalType": "address",
          "name": "previousOwner",
          "type": "address"
        },
        {
          "indexed": true,
          "internalType": "address",
          "name": "newOwner",
          "type": "address"
        }
      ],
      "name": "OwnershipTransferred",
      "type": "event"
    },
    {
      "anonymous": false,
      "inputs": [
        {
          "indexed": true,
          "internalType": "address",
          "name": "buyer",
          "type": "address"
        },
        {
          "indexed": true,
          "internalType": "address",
          "name": "DCTokenAddress",
          "type": "address"
        },
        {
          "indexed": true,
          "internalType": "uint256",
          "name": "bridgeId",
          "type": "uint256"
        },
        {
          "indexed": false,
          "internalType": "uint256",
          "name": "amountDoge",
          "type": "uint256"
        }
      ],
      "name": "egodCrossChainBuy_BridgeDoge",
      "type": "event"
    },
    {
      "stateMutability": "payable",
      "type": "fallback"
    },
    {
      "inputs": [],
      "name": "bridgeDoge",
      "outputs": [
        {
          "internalType": "contract IBridgeDoge",
          "name": "",
          "type": "address"
        }
      ],
      "stateMutability": "view",
      "type": "function"
    },
    {
      "inputs": [
        {
          "internalType": "address",
          "name": "DCTokenAddress",
          "type": "address"
        }
      ],
      "name": "doOneClickBuy",
      "outputs": [],
      "stateMutability": "payable",
      "type": "function"
    },
    {
      "inputs": [],
      "name": "doge",
      "outputs": [
        {
          "internalType": "contract IERC20",
          "name": "",
          "type": "address"
        }
      ],
      "stateMutability": "view",
      "type": "function"
    },
    {
      "inputs": [],
      "name": "dogechainRecieverAddress",
      "outputs": [
        {
          "internalType": "address",
          "name": "",
          "type": "address"
        }
      ],
      "stateMutability": "view",
      "type": "function"
    },
    {
      "inputs": [],
      "name": "enabled",
      "outputs": [
        {
          "internalType": "bool",
          "name": "",
          "type": "bool"
        }
      ],
      "stateMutability": "view",
      "type": "function"
    },
    {
      "inputs": [],
      "name": "minimumBuy",
      "outputs": [
        {
          "internalType": "uint256",
          "name": "",
          "type": "uint256"
        }
      ],
      "stateMutability": "view",
      "type": "function"
    },
    {
      "inputs": [],
      "name": "owner",
      "outputs": [
        {
          "internalType": "address",
          "name": "",
          "type": "address"
        }
      ],
      "stateMutability": "view",
      "type": "function"
    },
    {
      "inputs": [],
      "name": "pancakeswap",
      "outputs": [
        {
          "internalType": "contract IPancakeRouter02",
          "name": "",
          "type": "address"
        }
      ],
      "stateMutability": "view",
      "type": "function"
    },
    {
      "inputs": [],
      "name": "renounceOwnership",
      "outputs": [],
      "stateMutability": "nonpayable",
      "type": "function"
    },
    {
      "inputs": [
        {
          "internalType": "address",
          "name": "token",
          "type": "address"
        },
        {
          "internalType": "uint256",
          "name": "amount",
          "type": "uint256"
        }
      ],
      "name": "rescue",
      "outputs": [],
      "stateMutability": "nonpayable",
      "type": "function"
    },
    {
      "inputs": [],
      "name": "rescueBnb",
      "outputs": [],
      "stateMutability": "nonpayable",
      "type": "function"
    },
    {
      "inputs": [
        {
          "internalType": "bool",
          "name": "newEnabled",
          "type": "bool"
        }
      ],
      "name": "setAllEnabled",
      "outputs": [],
      "stateMutability": "nonpayable",
      "type": "function"
    },
    {
      "inputs": [
        {
          "internalType": "uint256",
          "name": "newMinimumBuy",
          "type": "uint256"
        }
      ],
      "name": "setMinimumBuy",
      "outputs": [],
      "stateMutability": "nonpayable",
      "type": "function"
    },
    {
      "inputs": [
        {
          "internalType": "address",
          "name": "_recieverAddress",
          "type": "address"
        }
      ],
      "name": "setReciever",
      "outputs": [],
      "stateMutability": "nonpayable",
      "type": "function"
    },
    {
      "inputs": [
        {
          "internalType": "address",
          "name": "newOwner",
          "type": "address"
        }
      ],
      "name": "transferOwnership",
      "outputs": [],
      "stateMutability": "nonpayable",
      "type": "function"
    },
    {
      "inputs": [],
      "name": "withdrawDoge",
      "outputs": [],
      "stateMutability": "nonpayable",
      "type": "function"
    },
    {
      "stateMutability": "payable",
      "type": "receive"
    }
  ],
  "transactionHash": "0x677c121024b9b202820b548158c7633e9b3372043dfb6cd827de5f33693456b0",
  "args": [],
  "numDeployments": 14,
  "solcInputHash": "d3449c0c0dbe167437285cca234b7767",
  "bytecode": "0x608060405267016345785d8a000060019081556002805460ff1916909117905534801561002b57600080fd5b5061003533610128565b600380547310ed43c718714eb63d5aa57b78b54704e256024e6001600160a01b0319918216179091556004805473ba2ae424d960c26247dd6c32edc70b295c744c4392168217815560028054610100600160a81b03191674b49d69115dbfe69f86f897c7a340a4d5f68f3b0c0017905560405163095ea7b360e01b815273b49d69115dbfe69f86f897c7a340a4d5f68f3b0c91810191909152600019602482015263095ea7b3906044016020604051808303816000875af11580156100fe573d6000803e3d6000fd5b505050506040513d601f19601f820116820180604052508101906101229190610178565b506101a1565b600080546001600160a01b038381166001600160a01b0319831681178455604051919092169283917f8be0079c531659141344cd1fd0a4f28419497f9722a3daafe3b4186f6b6457e09190a35050565b60006020828403121561018a57600080fd5b8151801515811461019a57600080fd5b9392505050565b610e8d806101b06000396000f3fe6080604052600436106100eb5760003560e01c80637344a44d116100845780639edc387b116100565780639edc387b14610274578063a0db86f914610294578063e1696349146102b4578063f2fde38b146102d457005b80637344a44d146101fc5780637a4e4ecf146102115780638da5cb5b1461023157806397c6a7681461024f57005b806334809ee7116100bd57806334809ee71461019457806370926914146101b4578063715018a6146101c7578063731f03fc146101dc57005b806305785e4c146100f457806319429cf51461011d578063238dafe01461015557806331c4b2661461017f57005b366100f257005b005b34801561010057600080fd5b5061010a60015481565b6040519081526020015b60405180910390f35b34801561012957600080fd5b5060055461013d906001600160a01b031681565b6040516001600160a01b039091168152602001610114565b34801561016157600080fd5b5060025461016f9060ff1681565b6040519015158152602001610114565b34801561018b57600080fd5b506100f26102f4565b3480156101a057600080fd5b5060045461013d906001600160a01b031681565b6100f26101c2366004610b79565b6103fd565b3480156101d357600080fd5b506100f26106f9565b3480156101e857600080fd5b506100f26101f7366004610b9d565b61070d565b34801561020857600080fd5b506100f261071a565b34801561021d57600080fd5b506100f261022c366004610bb6565b61074e565b34801561023d57600080fd5b506000546001600160a01b031661013d565b34801561025b57600080fd5b5060025461013d9061010090046001600160a01b031681565b34801561028057600080fd5b506100f261028f366004610bf0565b6107e5565b3480156102a057600080fd5b506100f26102af366004610b79565b610800565b3480156102c057600080fd5b5060035461013d906001600160a01b031681565b3480156102e057600080fd5b506100f26102ef366004610b79565b610837565b6102fc6108c4565b600480546040516370a0823160e01b815230928101929092526001600160a01b03169063a9059cbb90339083906370a0823190602401602060405180830381865afa15801561034f573d6000803e3d6000fd5b505050506040513d601f19601f820116820180604052508101906103739190610c0d565b6040517fffffffff0000000000000000000000000000000000000000000000000000000060e085901b1681526001600160a01b03909216600483015260248201526044016020604051808303816000875af11580156103d6573d6000803e3d6000fd5b505050506040513d601f19601f820116820180604052508101906103fa9190610c26565b50565b60025460ff166104545760405162461bcd60e51b815260206004820152601660248201527f45676f64584353656e6465723a2044697361626c65640000000000000000000060448201526064015b60405180910390fd5b6001543410156104cc5760405162461bcd60e51b815260206004820152602260248201527f45676f64584353656e6465723a204d696e696d756d20627579206e6f74206d6560448201527f742e000000000000000000000000000000000000000000000000000000000000606482015260840161044b565b60408051600280825260608201835260009260208301908036833701905050905073bb4cdb9cbd36b01bd1cbaebf2de08d9173bc095c8160008151811061051557610515610c59565b60200260200101906001600160a01b031690816001600160a01b03168152505073ba2ae424d960c26247dd6c32edc70b295c744c438160018151811061055d5761055d610c59565b6001600160a01b039283166020918202929092010152600480546040516370a0823160e01b8152309281019290925260009216906370a0823190602401602060405180830381865afa1580156105b7573d6000803e3d6000fd5b505050506040513d601f19601f820116820180604052508101906105db9190610c0d565b6003549091506001600160a01b0316637ff36ab534600085306105ff426001610c85565b6040518663ffffffff1660e01b815260040161061e9493929190610c9d565b60006040518083038185885af115801561063c573d6000803e3d6000fd5b50505050506040513d6000823e601f3d908101601f191682016040526106659190810190610d38565b50600480546040516370a0823160e01b815230928101929092526000916001600160a01b03909116906370a0823190602401602060405180830381865afa1580156106b4573d6000803e3d6000fd5b505050506040513d601f19601f820116820180604052508101906106d89190610c0d565b905060006106e68383610dde565b90506106f2858261091e565b5050505050565b6107016108c4565b61070b6000610b07565b565b6107156108c4565b600155565b6107226108c4565b60405133904780156108fc02916000818181858888f193505050501580156103fa573d6000803e3d6000fd5b6107566108c4565b6040517fa9059cbb000000000000000000000000000000000000000000000000000000008152336004820152602481018290526001600160a01b0383169063a9059cbb906044016020604051808303816000875af11580156107bc573d6000803e3d6000fd5b505050506040513d601f19601f820116820180604052508101906107e09190610c26565b505050565b6107ed6108c4565b6002805460ff1916911515919091179055565b6108086108c4565b6005805473ffffffffffffffffffffffffffffffffffffffff19166001600160a01b0392909216919091179055565b61083f6108c4565b6001600160a01b0381166108bb5760405162461bcd60e51b815260206004820152602660248201527f4f776e61626c653a206e6577206f776e657220697320746865207a65726f206160448201527f6464726573730000000000000000000000000000000000000000000000000000606482015260840161044b565b6103fa81610b07565b6000546001600160a01b0316331461070b5760405162461bcd60e51b815260206004820181905260248201527f4f776e61626c653a2063616c6c6572206973206e6f7420746865206f776e6572604482015260640161044b565b6000600260019054906101000a90046001600160a01b03166001600160a01b031663c12564f46040518163ffffffff1660e01b8152600401602060405180830381865afa158015610973573d6000803e3d6000fd5b505050506040513d601f19601f820116820180604052508101906109979190610c0d565b6002546005546040517fb6d2314a0000000000000000000000000000000000000000000000000000000081526001600160a01b03918216600482015260248101869052929350610100909104169063b6d2314a90604401600060405180830381600087803b158015610a0857600080fd5b505af1158015610a1c573d6000803e3d6000fd5b50506002546040517f07444a9700000000000000000000000000000000000000000000000000000000815260048101859052600093506101009091046001600160a01b031691506307444a9790602401606060405180830381865afa158015610a89573d6000803e3d6000fd5b505050506040513d601f19601f82011682018060405250810190610aad9190610df5565b905081846001600160a01b0316336001600160a01b03167fa2c2a342522df2999f93371cebd312ce9a4660e3c2ceaed3c389e798f90b19698460200151604051610af991815260200190565b60405180910390a450505050565b600080546001600160a01b0383811673ffffffffffffffffffffffffffffffffffffffff19831681178455604051919092169283917f8be0079c531659141344cd1fd0a4f28419497f9722a3daafe3b4186f6b6457e09190a35050565b6001600160a01b03811681146103fa57600080fd5b600060208284031215610b8b57600080fd5b8135610b9681610b64565b9392505050565b600060208284031215610baf57600080fd5b5035919050565b60008060408385031215610bc957600080fd5b8235610bd481610b64565b946020939093013593505050565b80151581146103fa57600080fd5b600060208284031215610c0257600080fd5b8135610b9681610be2565b600060208284031215610c1f57600080fd5b5051919050565b600060208284031215610c3857600080fd5b8151610b9681610be2565b634e487b7160e01b600052604160045260246000fd5b634e487b7160e01b600052603260045260246000fd5b634e487b7160e01b600052601160045260246000fd5b60008219821115610c9857610c98610c6f565b500190565b600060808201868352602060808185015281875180845260a086019150828901935060005b81811015610ce75784516001600160a01b031683529383019391830191600101610cc2565b50506001600160a01b039690961660408501525050506060015292915050565b604051601f8201601f1916810167ffffffffffffffff81118282101715610d3057610d30610c43565b604052919050565b60006020808385031215610d4b57600080fd5b825167ffffffffffffffff80821115610d6357600080fd5b818501915085601f830112610d7757600080fd5b815181811115610d8957610d89610c43565b8060051b9150610d9a848301610d07565b8181529183018401918481019088841115610db457600080fd5b938501935b83851015610dd257845182529385019390850190610db9565b98975050505050505050565b600082821015610df057610df0610c6f565b500390565b600060608284031215610e0757600080fd5b6040516060810181811067ffffffffffffffff82111715610e2a57610e2a610c43565b6040528251610e3881610b64565b815260208381015190820152604092830151928101929092525091905056fea2646970667358221220a252196963c49c2e6587a34610ca767d15cc8ee3aa6a7be1b6b401493d3c482164736f6c634300080a0033",
  "devdoc": {
    "kind": "dev",
    "methods": {
      "owner()": {
        "details": "Returns the address of the current owner."
      },
      "renounceOwnership()": {
        "details": "Leaves the contract without owner. It will not be possible to call `onlyOwner` functions anymore. Can only be called by the current owner. NOTE: Renouncing ownership will leave the contract without an owner, thereby removing any functionality that is only available to the owner."
      },
      "transferOwnership(address)": {
        "details": "Transfers ownership of the contract to a new account (`newOwner`). Can only be called by the current owner."
      }
    },
    "version": 1
  },
  "userdoc": {
    "kind": "user",
    "methods": {},
    "version": 1
  },
  "storageLayout": {
    "storage": [
      {
        "astId": 7,
        "contract": "contracts/EgodXCSender.sol:EgodXCSender",
        "label": "_owner",
        "offset": 0,
        "slot": "0",
        "type": "t_address"
      },
      {
        "astId": 597,
        "contract": "contracts/EgodXCSender.sol:EgodXCSender",
        "label": "minimumBuy",
        "offset": 0,
        "slot": "1",
        "type": "t_uint256"
      },
      {
        "astId": 600,
        "contract": "contracts/EgodXCSender.sol:EgodXCSender",
        "label": "enabled",
        "offset": 0,
        "slot": "2",
        "type": "t_bool"
      },
      {
        "astId": 603,
        "contract": "contracts/EgodXCSender.sol:EgodXCSender",
        "label": "bridgeDoge",
        "offset": 1,
        "slot": "2",
        "type": "t_contract(IBridgeDoge)924"
      },
      {
        "astId": 606,
        "contract": "contracts/EgodXCSender.sol:EgodXCSender",
        "label": "pancakeswap",
        "offset": 0,
        "slot": "3",
        "type": "t_contract(IPancakeRouter02)1625"
      },
      {
        "astId": 609,
        "contract": "contracts/EgodXCSender.sol:EgodXCSender",
        "label": "doge",
        "offset": 0,
        "slot": "4",
        "type": "t_contract(IERC20)190"
      },
      {
        "astId": 611,
        "contract": "contracts/EgodXCSender.sol:EgodXCSender",
        "label": "dogechainRecieverAddress",
        "offset": 0,
        "slot": "5",
        "type": "t_address"
      }
    ],
    "types": {
      "t_address": {
        "encoding": "inplace",
        "label": "address",
        "numberOfBytes": "20"
      },
      "t_bool": {
        "encoding": "inplace",
        "label": "bool",
        "numberOfBytes": "1"
      },
      "t_contract(IBridgeDoge)924": {
        "encoding": "inplace",
        "label": "contract IBridgeDoge",
        "numberOfBytes": "20"
      },
      "t_contract(IERC20)190": {
        "encoding": "inplace",
        "label": "contract IERC20",
        "numberOfBytes": "20"
      },
      "t_contract(IPancakeRouter02)1625": {
        "encoding": "inplace",
        "label": "contract IPancakeRouter02",
        "numberOfBytes": "20"
      },
      "t_uint256": {
        "encoding": "inplace",
        "label": "uint256",
        "numberOfBytes": "32"
      }
    }
  }
}