{
  "address": "0x986b128A4156a85711cD77520E35665316ED1E7f",
  "abi": [
    {
      "inputs": [],
      "stateMutability": "nonpayable",
      "type": "constructor"
    },
    {
      "anonymous": false,
      "inputs": [
        {
          "indexed": true,
          "internalType": "address",
          "name": "previousOwner",
          "type": "address"
        },
        {
          "indexed": true,
          "internalType": "address",
          "name": "newOwner",
          "type": "address"
        }
      ],
      "name": "OwnershipTransferred",
      "type": "event"
    },
    {
      "anonymous": false,
      "inputs": [
        {
          "indexed": true,
          "internalType": "address",
          "name": "buyer",
          "type": "address"
        },
        {
          "indexed": true,
          "internalType": "address",
          "name": "DCTokenAddress",
          "type": "address"
        },
        {
          "indexed": true,
          "internalType": "uint256",
          "name": "bridgeId",
          "type": "uint256"
        },
        {
          "indexed": false,
          "internalType": "uint256",
          "name": "amountDoge",
          "type": "uint256"
        }
      ],
      "name": "egodCrossChainBuy_BridgeDoge",
      "type": "event"
    },
    {
      "anonymous": false,
      "inputs": [
        {
          "indexed": true,
          "internalType": "address",
          "name": "buyer",
          "type": "address"
        },
        {
          "indexed": true,
          "internalType": "address",
          "name": "DCTokenAddress",
          "type": "address"
        },
        {
          "indexed": false,
          "internalType": "uint256",
          "name": "amountDoge",
          "type": "uint256"
        }
      ],
      "name": "egodCrossChainBuy_Self",
      "type": "event"
    },
    {
      "anonymous": false,
      "inputs": [
        {
          "indexed": true,
          "internalType": "address",
          "name": "sender",
          "type": "address"
        },
        {
          "indexed": false,
          "internalType": "uint256",
          "name": "amount",
          "type": "uint256"
        }
      ],
      "name": "takenFee",
      "type": "event"
    },
    {
      "stateMutability": "payable",
      "type": "fallback"
    },
    {
      "inputs": [],
      "name": "allEnabled",
      "outputs": [
        {
          "internalType": "bool",
          "name": "",
          "type": "bool"
        }
      ],
      "stateMutability": "view",
      "type": "function"
    },
    {
      "inputs": [],
      "name": "bridgeDoge",
      "outputs": [
        {
          "internalType": "contract IBridgeDoge",
          "name": "",
          "type": "address"
        }
      ],
      "stateMutability": "view",
      "type": "function"
    },
    {
      "inputs": [
        {
          "internalType": "address",
          "name": "DCTokenAddress",
          "type": "address"
        }
      ],
      "name": "doOneClickBuy",
      "outputs": [],
      "stateMutability": "payable",
      "type": "function"
    },
    {
      "inputs": [],
      "name": "doge",
      "outputs": [
        {
          "internalType": "contract IERC20",
          "name": "",
          "type": "address"
        }
      ],
      "stateMutability": "view",
      "type": "function"
    },
    {
      "inputs": [
        {
          "internalType": "address",
          "name": "",
          "type": "address"
        }
      ],
      "name": "feeByDCTokenAddressBase1000",
      "outputs": [
        {
          "internalType": "uint256",
          "name": "",
          "type": "uint256"
        }
      ],
      "stateMutability": "view",
      "type": "function"
    },
    {
      "inputs": [],
      "name": "feeEnabled",
      "outputs": [
        {
          "internalType": "bool",
          "name": "",
          "type": "bool"
        }
      ],
      "stateMutability": "view",
      "type": "function"
    },
    {
      "inputs": [
        {
          "internalType": "address",
          "name": "DCTokenAddress",
          "type": "address"
        }
      ],
      "name": "getRecieverForDCTokenAddress",
      "outputs": [
        {
          "internalType": "address",
          "name": "",
          "type": "address"
        }
      ],
      "stateMutability": "view",
      "type": "function"
    },
    {
      "inputs": [],
      "name": "getRecievers",
      "outputs": [
        {
          "internalType": "address[]",
          "name": "",
          "type": "address[]"
        }
      ],
      "stateMutability": "view",
      "type": "function"
    },
    {
      "inputs": [],
      "name": "minimumBuy",
      "outputs": [
        {
          "internalType": "uint256",
          "name": "",
          "type": "uint256"
        }
      ],
      "stateMutability": "view",
      "type": "function"
    },
    {
      "inputs": [],
      "name": "owner",
      "outputs": [
        {
          "internalType": "address",
          "name": "",
          "type": "address"
        }
      ],
      "stateMutability": "view",
      "type": "function"
    },
    {
      "inputs": [],
      "name": "pancakeswap",
      "outputs": [
        {
          "internalType": "contract IPancakeRouter02",
          "name": "",
          "type": "address"
        }
      ],
      "stateMutability": "view",
      "type": "function"
    },
    {
      "inputs": [
        {
          "internalType": "uint256",
          "name": "",
          "type": "uint256"
        }
      ],
      "name": "recievers",
      "outputs": [
        {
          "internalType": "address",
          "name": "",
          "type": "address"
        }
      ],
      "stateMutability": "view",
      "type": "function"
    },
    {
      "inputs": [
        {
          "internalType": "address",
          "name": "",
          "type": "address"
        }
      ],
      "name": "recieversByDCTokenAddress",
      "outputs": [
        {
          "internalType": "address",
          "name": "recieverAddress",
          "type": "address"
        },
        {
          "internalType": "bool",
          "name": "enabled",
          "type": "bool"
        }
      ],
      "stateMutability": "view",
      "type": "function"
    },
    {
      "inputs": [],
      "name": "renounceOwnership",
      "outputs": [],
      "stateMutability": "nonpayable",
      "type": "function"
    },
    {
      "inputs": [
        {
          "internalType": "address",
          "name": "token",
          "type": "address"
        },
        {
          "internalType": "uint256",
          "name": "amount",
          "type": "uint256"
        }
      ],
      "name": "rescue",
      "outputs": [],
      "stateMutability": "nonpayable",
      "type": "function"
    },
    {
      "inputs": [],
      "name": "rescueBnb",
      "outputs": [],
      "stateMutability": "nonpayable",
      "type": "function"
    },
    {
      "inputs": [],
      "name": "selfFeePercent",
      "outputs": [
        {
          "internalType": "uint256",
          "name": "",
          "type": "uint256"
        }
      ],
      "stateMutability": "view",
      "type": "function"
    },
    {
      "inputs": [
        {
          "internalType": "bool",
          "name": "enabled",
          "type": "bool"
        }
      ],
      "name": "setAllEnabled",
      "outputs": [],
      "stateMutability": "nonpayable",
      "type": "function"
    },
    {
      "inputs": [
        {
          "internalType": "bool",
          "name": "newFeeEnabled",
          "type": "bool"
        }
      ],
      "name": "setFeeEnabled",
      "outputs": [],
      "stateMutability": "nonpayable",
      "type": "function"
    },
    {
      "inputs": [
        {
          "internalType": "address",
          "name": "DCTokenAddress",
          "type": "address"
        },
        {
          "internalType": "uint256",
          "name": "feeBase1000",
          "type": "uint256"
        }
      ],
      "name": "setFeeForDCTokenAddress",
      "outputs": [],
      "stateMutability": "nonpayable",
      "type": "function"
    },
    {
      "inputs": [
        {
          "internalType": "uint256",
          "name": "newMinimumBuy",
          "type": "uint256"
        }
      ],
      "name": "setMinimumBuy",
      "outputs": [],
      "stateMutability": "nonpayable",
      "type": "function"
    },
    {
      "inputs": [
        {
          "internalType": "address",
          "name": "DCTokenAddress",
          "type": "address"
        },
        {
          "internalType": "bool",
          "name": "enabled",
          "type": "bool"
        }
      ],
      "name": "setRecieverEnabled",
      "outputs": [],
      "stateMutability": "nonpayable",
      "type": "function"
    },
    {
      "inputs": [
        {
          "internalType": "address",
          "name": "DCTokenAddress",
          "type": "address"
        },
        {
          "internalType": "address",
          "name": "recieverAddress",
          "type": "address"
        },
        {
          "internalType": "bool",
          "name": "enabled",
          "type": "bool"
        }
      ],
      "name": "setRecieverForDCTokenAddress",
      "outputs": [],
      "stateMutability": "nonpayable",
      "type": "function"
    },
    {
      "inputs": [
        {
          "internalType": "uint256",
          "name": "newSelfFeePercent",
          "type": "uint256"
        }
      ],
      "name": "setSelfFeePercent",
      "outputs": [],
      "stateMutability": "nonpayable",
      "type": "function"
    },
    {
      "inputs": [
        {
          "internalType": "bool",
          "name": "newUseSelfBridge",
          "type": "bool"
        }
      ],
      "name": "setUseSelfBridge",
      "outputs": [],
      "stateMutability": "nonpayable",
      "type": "function"
    },
    {
      "inputs": [
        {
          "internalType": "address",
          "name": "newOwner",
          "type": "address"
        }
      ],
      "name": "transferOwnership",
      "outputs": [],
      "stateMutability": "nonpayable",
      "type": "function"
    },
    {
      "inputs": [],
      "name": "useSelfBridge",
      "outputs": [
        {
          "internalType": "bool",
          "name": "",
          "type": "bool"
        }
      ],
      "stateMutability": "view",
      "type": "function"
    },
    {
      "inputs": [],
      "name": "withdrawDoge",
      "outputs": [],
      "stateMutability": "nonpayable",
      "type": "function"
    },
    {
      "stateMutability": "payable",
      "type": "receive"
    }
  ],
  "transactionHash": "0x7d1a4b31b9f34568bfbf24f009a74cc3e030c418e68b589761cc16bc2177d62b",
  "args": [],
  "numDeployments": 13,
  "solcInputHash": "191c41a008c43e87fed69910c1845350",
  "bytecode": "0x608060405267016345785d8a000060019081556002805460ff191690911781556008805461ff001916905560095534801561003957600080fd5b5061004333610136565b600380547310ed43c718714eb63d5aa57b78b54704e256024e6001600160a01b0319918216179091556004805473ba2ae424d960c26247dd6c32edc70b295c744c4392168217815560028054610100600160a81b03191674b49d69115dbfe69f86f897c7a340a4d5f68f3b0c0017905560405163095ea7b360e01b815273b49d69115dbfe69f86f897c7a340a4d5f68f3b0c91810191909152600019602482015263095ea7b3906044016020604051808303816000875af115801561010c573d6000803e3d6000fd5b505050506040513d601f19601f820116820180604052508101906101309190610186565b506101af565b600080546001600160a01b038381166001600160a01b0319831681178455604051919092169283917f8be0079c531659141344cd1fd0a4f28419497f9722a3daafe3b4186f6b6457e09190a35050565b60006020828403121561019857600080fd5b815180151581146101a857600080fd5b9392505050565b611590806101be6000396000f3fe6080604052600436106101a35760003560e01c80637344a44d116100e0578063a771ebc711610084578063e3c61cd011610061578063e3c61cd01461050b578063f13898471461052b578063f2fde38b1461054a578063fa944e6a1461056a57005b8063a771ebc7146104a1578063c3a69b5e146104cb578063e1696349146104eb57005b80638da5cb5b116100bd5780638da5cb5b1461041e5780638ee50e6f1461043c57806397c6a7681461045c5780639edc387b1461048157005b80637344a44d146103b0578063775ac896146103c55780637a4e4ecf146103fe57005b80634b65cd0d116101475780636d77d4bb116101245780636d77d4bb146103485780637092691414610368578063715018a61461037b578063731f03fc1461039057005b80634b65cd0d146102d95780635a6e28f2146103065780636cfadb4d1461032657005b806320bab0b01161018057806320bab0b01461020b57806331c4b2661461026c57806334809ee71461028157806343e97c62146102b957005b806305785e4c146101ac5780630db474fa146101d55780631a8798d8146101f557005b366101aa57005b005b3480156101b857600080fd5b506101c260015481565b6040519081526020015b60405180910390f35b3480156101e157600080fd5b506101aa6101f03660046111a6565b610584565b34801561020157600080fd5b506101c260095481565b34801561021757600080fd5b5061024d6102263660046111df565b6005602052600090815260409020546001600160a01b03811690600160a01b900460ff1682565b604080516001600160a01b0390931683529015156020830152016101cc565b34801561027857600080fd5b506101aa61059f565b34801561028d57600080fd5b506004546102a1906001600160a01b031681565b6040516001600160a01b0390911681526020016101cc565b3480156102c557600080fd5b506101aa6102d43660046111fc565b6106a8565b3480156102e557600080fd5b506101c26102f43660046111df565b60076020526000908152604090205481565b34801561031257600080fd5b506101aa610321366004611215565b6106b5565b34801561033257600080fd5b5061033b61077b565b6040516101cc91906112a4565b34801561035457600080fd5b506101aa6103633660046111a6565b6107dd565b6101aa6103763660046111df565b6107ff565b34801561038757600080fd5b506101aa610bf2565b34801561039c57600080fd5b506101aa6103ab3660046111fc565b610c06565b3480156103bc57600080fd5b506101aa610c13565b3480156103d157600080fd5b506102a16103e03660046111df565b6001600160a01b039081166000908152600560205260409020541690565b34801561040a57600080fd5b506101aa6104193660046112b7565b610c47565b34801561042a57600080fd5b506000546001600160a01b03166102a1565b34801561044857600080fd5b506102a16104573660046111fc565b610cde565b34801561046857600080fd5b506002546102a19061010090046001600160a01b031681565b34801561048d57600080fd5b506101aa61049c3660046111a6565b610d08565b3480156104ad57600080fd5b506008546104bb9060ff1681565b60405190151581526020016101cc565b3480156104d757600080fd5b506101aa6104e63660046112e3565b610d23565b3480156104f757600080fd5b506003546102a1906001600160a01b031681565b34801561051757600080fd5b506101aa6105263660046112b7565b610d7b565b34801561053757600080fd5b506008546104bb90610100900460ff1681565b34801561055657600080fd5b506101aa6105653660046111df565b610d9f565b34801561057657600080fd5b506002546104bb9060ff1681565b61058c610e2c565b6008805460ff1916911515919091179055565b6105a7610e2c565b600480546040516370a0823160e01b815230928101929092526001600160a01b03169063a9059cbb90339083906370a0823190602401602060405180830381865afa1580156105fa573d6000803e3d6000fd5b505050506040513d601f19601f8201168201806040525081019061061e919061131c565b6040517fffffffff0000000000000000000000000000000000000000000000000000000060e085901b1681526001600160a01b03909216600483015260248201526044016020604051808303816000875af1158015610681573d6000803e3d6000fd5b505050506040513d601f19601f820116820180604052508101906106a59190611335565b50565b6106b0610e2c565b600955565b6106bd610e2c565b6040805180820182526001600160a01b039384168082529215156020808301918252958516600090815260059096529185209051815492511515600160a01b027fffffffffffffffffffffff000000000000000000000000000000000000000000909316941693909317179091556006805460018101825592527ff652222313e28459528d920b65115c16c04f3efc82aaedc97be59f3f377c0d3f909101805473ffffffffffffffffffffffffffffffffffffffff19169091179055565b606060068054806020026020016040519081016040528092919081815260200182805480156107d357602002820191906000526020600020905b81546001600160a01b031681526001909101906020018083116107b5575b5050505050905090565b6107e5610e2c565b600880549115156101000261ff0019909216919091179055565b60025460ff166108565760405162461bcd60e51b815260206004820152601660248201527f45676f64584353656e6465723a2044697361626c65640000000000000000000060448201526064015b60405180910390fd5b6001600160a01b038116600090815260056020526040902054600160a01b900460ff166108c55760405162461bcd60e51b815260206004820152601a60248201527f45676f64584353656e6465723a204e6f2072656369657665722e000000000000604482015260640161084d565b60015434101561093d5760405162461bcd60e51b815260206004820152602260248201527f45676f64584353656e6465723a204d696e696d756d20627579206e6f74206d6560448201527f742e000000000000000000000000000000000000000000000000000000000000606482015260840161084d565b60408051600280825260608201835260009260208301908036833701905050905073bb4cdb9cbd36b01bd1cbaebf2de08d9173bc095c8160008151811061098657610986611368565b60200260200101906001600160a01b031690816001600160a01b03168152505073ba2ae424d960c26247dd6c32edc70b295c744c43816001815181106109ce576109ce611368565b6001600160a01b0390921660209283029190910190910152600854349060ff1615610a31576001600160a01b0383166000908152600760205260409020546103e890610a1a9082611394565b610a2490836113ab565b610a2e91906113ca565b90505b600480546040516370a0823160e01b815230928101929092526000916001600160a01b03909116906370a0823190602401602060405180830381865afa158015610a7f573d6000803e3d6000fd5b505050506040513d601f19601f82011682018060405250810190610aa3919061131c565b6003546040517f7ff36ab50000000000000000000000000000000000000000000000000000000081529192506001600160a01b031690637ff36ab5908490610af6906000908890309042906004016113ec565b60006040518083038185885af1158015610b14573d6000803e3d6000fd5b50505050506040513d6000823e601f3d908101601f19168201604052610b3d9190810190611452565b50600480546040516370a0823160e01b815230928101929092526000916001600160a01b03909116906370a0823190602401602060405180830381865afa158015610b8c573d6000803e3d6000fd5b505050506040513d601f19601f82011682018060405250810190610bb0919061131c565b90506000610bbe8383611394565b600854909150610100900460ff1615610be057610bdb8682610e86565b610bea565b610bea8682610f2e565b505050505050565b610bfa610e2c565b610c04600061113b565b565b610c0e610e2c565b600155565b610c1b610e2c565b60405133904780156108fc02916000818181858888f193505050501580156106a5573d6000803e3d6000fd5b610c4f610e2c565b6040517fa9059cbb000000000000000000000000000000000000000000000000000000008152336004820152602481018290526001600160a01b0383169063a9059cbb906044016020604051808303816000875af1158015610cb5573d6000803e3d6000fd5b505050506040513d601f19601f82011682018060405250810190610cd99190611335565b505050565b60068181548110610cee57600080fd5b6000918252602090912001546001600160a01b0316905081565b610d10610e2c565b6002805460ff1916911515919091179055565b610d2b610e2c565b6001600160a01b0390911660009081526005602052604090208054911515600160a01b027fffffffffffffffffffffff00ffffffffffffffffffffffffffffffffffffffff909216919091179055565b610d83610e2c565b6001600160a01b03909116600090815260076020526040902055565b610da7610e2c565b6001600160a01b038116610e235760405162461bcd60e51b815260206004820152602660248201527f4f776e61626c653a206e6577206f776e657220697320746865207a65726f206160448201527f6464726573730000000000000000000000000000000000000000000000000000606482015260840161084d565b6106a58161113b565b6000546001600160a01b03163314610c045760405162461bcd60e51b815260206004820181905260248201527f4f776e61626c653a2063616c6c6572206973206e6f7420746865206f776e6572604482015260640161084d565b6000606460095483610e9891906113ab565b610ea291906113ca565b90506000610eb08284611394565b60405183815290915033907f430997d55924616b84acc28c78d60d69503024c1a4b12b20e703b0ef52e29ef09060200160405180910390a26040518181526001600160a01b0385169033907f7b68a47c25e0e13157dc0cd6fbaf933f6200e520df41cea1c87e5380975c7d339060200160405180910390a350505050565b6001600160a01b0380831660009081526005602090815260408083205460025482517fc12564f4000000000000000000000000000000000000000000000000000000008152925191861695610100909104169263c12564f492600480820193918290030181865afa158015610fa7573d6000803e3d6000fd5b505050506040513d601f19601f82011682018060405250810190610fcb919061131c565b6002546040517fb6d2314a0000000000000000000000000000000000000000000000000000000081526001600160a01b038581166004830152602482018790529293506101009091049091169063b6d2314a90604401600060405180830381600087803b15801561103b57600080fd5b505af115801561104f573d6000803e3d6000fd5b50506002546040517f07444a9700000000000000000000000000000000000000000000000000000000815260048101859052600093506101009091046001600160a01b031691506307444a9790602401606060405180830381865afa1580156110bc573d6000803e3d6000fd5b505050506040513d601f19601f820116820180604052508101906110e091906114f8565b905081856001600160a01b0316336001600160a01b03167fa2c2a342522df2999f93371cebd312ce9a4660e3c2ceaed3c389e798f90b1969846020015160405161112c91815260200190565b60405180910390a45050505050565b600080546001600160a01b0383811673ffffffffffffffffffffffffffffffffffffffff19831681178455604051919092169283917f8be0079c531659141344cd1fd0a4f28419497f9722a3daafe3b4186f6b6457e09190a35050565b80151581146106a557600080fd5b6000602082840312156111b857600080fd5b81356111c381611198565b9392505050565b6001600160a01b03811681146106a557600080fd5b6000602082840312156111f157600080fd5b81356111c3816111ca565b60006020828403121561120e57600080fd5b5035919050565b60008060006060848603121561122a57600080fd5b8335611235816111ca565b92506020840135611245816111ca565b9150604084013561125581611198565b809150509250925092565b600081518084526020808501945080840160005b838110156112995781516001600160a01b031687529582019590820190600101611274565b509495945050505050565b6020815260006111c36020830184611260565b600080604083850312156112ca57600080fd5b82356112d5816111ca565b946020939093013593505050565b600080604083850312156112f657600080fd5b8235611301816111ca565b9150602083013561131181611198565b809150509250929050565b60006020828403121561132e57600080fd5b5051919050565b60006020828403121561134757600080fd5b81516111c381611198565b634e487b7160e01b600052604160045260246000fd5b634e487b7160e01b600052603260045260246000fd5b634e487b7160e01b600052601160045260246000fd5b6000828210156113a6576113a661137e565b500390565b60008160001904831182151516156113c5576113c561137e565b500290565b6000826113e757634e487b7160e01b600052601260045260246000fd5b500490565b8481526080602082015260006114056080830186611260565b6001600160a01b03949094166040830152506060015292915050565b604051601f8201601f1916810167ffffffffffffffff8111828210171561144a5761144a611352565b604052919050565b6000602080838503121561146557600080fd5b825167ffffffffffffffff8082111561147d57600080fd5b818501915085601f83011261149157600080fd5b8151818111156114a3576114a3611352565b8060051b91506114b4848301611421565b81815291830184019184810190888411156114ce57600080fd5b938501935b838510156114ec578451825293850193908501906114d3565b98975050505050505050565b60006060828403121561150a57600080fd5b6040516060810181811067ffffffffffffffff8211171561152d5761152d611352565b604052825161153b816111ca565b815260208381015190820152604092830151928101929092525091905056fea2646970667358221220b4066661c1f4baf960355d45babcde70c1adb1aa308fd4a24e3d32082194cb0b64736f6c634300080a0033",
  "devdoc": {
    "kind": "dev",
    "methods": {
      "owner()": {
        "details": "Returns the address of the current owner."
      },
      "renounceOwnership()": {
        "details": "Leaves the contract without owner. It will not be possible to call `onlyOwner` functions anymore. Can only be called by the current owner. NOTE: Renouncing ownership will leave the contract without an owner, thereby removing any functionality that is only available to the owner."
      },
      "transferOwnership(address)": {
        "details": "Transfers ownership of the contract to a new account (`newOwner`). Can only be called by the current owner."
      }
    },
    "version": 1
  },
  "userdoc": {
    "kind": "user",
    "methods": {},
    "version": 1
  },
  "storageLayout": {
    "storage": [
      {
        "astId": 7,
        "contract": "contracts/EgodXCSender.sol:EgodXCSender",
        "label": "_owner",
        "offset": 0,
        "slot": "0",
        "type": "t_address"
      },
      {
        "astId": 604,
        "contract": "contracts/EgodXCSender.sol:EgodXCSender",
        "label": "minimumBuy",
        "offset": 0,
        "slot": "1",
        "type": "t_uint256"
      },
      {
        "astId": 607,
        "contract": "contracts/EgodXCSender.sol:EgodXCSender",
        "label": "allEnabled",
        "offset": 0,
        "slot": "2",
        "type": "t_bool"
      },
      {
        "astId": 610,
        "contract": "contracts/EgodXCSender.sol:EgodXCSender",
        "label": "bridgeDoge",
        "offset": 1,
        "slot": "2",
        "type": "t_contract(IBridgeDoge)1146"
      },
      {
        "astId": 613,
        "contract": "contracts/EgodXCSender.sol:EgodXCSender",
        "label": "pancakeswap",
        "offset": 0,
        "slot": "3",
        "type": "t_contract(IPancakeRouter02)1790"
      },
      {
        "astId": 616,
        "contract": "contracts/EgodXCSender.sol:EgodXCSender",
        "label": "doge",
        "offset": 0,
        "slot": "4",
        "type": "t_contract(IERC20)190"
      },
      {
        "astId": 621,
        "contract": "contracts/EgodXCSender.sol:EgodXCSender",
        "label": "recieversByDCTokenAddress",
        "offset": 0,
        "slot": "5",
        "type": "t_mapping(t_address,t_struct(DCRecieverData)593_storage)"
      },
      {
        "astId": 624,
        "contract": "contracts/EgodXCSender.sol:EgodXCSender",
        "label": "recievers",
        "offset": 0,
        "slot": "6",
        "type": "t_array(t_address)dyn_storage"
      },
      {
        "astId": 628,
        "contract": "contracts/EgodXCSender.sol:EgodXCSender",
        "label": "feeByDCTokenAddressBase1000",
        "offset": 0,
        "slot": "7",
        "type": "t_mapping(t_address,t_uint256)"
      },
      {
        "astId": 630,
        "contract": "contracts/EgodXCSender.sol:EgodXCSender",
        "label": "feeEnabled",
        "offset": 0,
        "slot": "8",
        "type": "t_bool"
      },
      {
        "astId": 918,
        "contract": "contracts/EgodXCSender.sol:EgodXCSender",
        "label": "useSelfBridge",
        "offset": 1,
        "slot": "8",
        "type": "t_bool"
      },
      {
        "astId": 933,
        "contract": "contracts/EgodXCSender.sol:EgodXCSender",
        "label": "selfFeePercent",
        "offset": 0,
        "slot": "9",
        "type": "t_uint256"
      }
    ],
    "types": {
      "t_address": {
        "encoding": "inplace",
        "label": "address",
        "numberOfBytes": "20"
      },
      "t_array(t_address)dyn_storage": {
        "base": "t_address",
        "encoding": "dynamic_array",
        "label": "address[]",
        "numberOfBytes": "32"
      },
      "t_bool": {
        "encoding": "inplace",
        "label": "bool",
        "numberOfBytes": "1"
      },
      "t_contract(IBridgeDoge)1146": {
        "encoding": "inplace",
        "label": "contract IBridgeDoge",
        "numberOfBytes": "20"
      },
      "t_contract(IERC20)190": {
        "encoding": "inplace",
        "label": "contract IERC20",
        "numberOfBytes": "20"
      },
      "t_contract(IPancakeRouter02)1790": {
        "encoding": "inplace",
        "label": "contract IPancakeRouter02",
        "numberOfBytes": "20"
      },
      "t_mapping(t_address,t_struct(DCRecieverData)593_storage)": {
        "encoding": "mapping",
        "key": "t_address",
        "label": "mapping(address => struct DCRecieverData)",
        "numberOfBytes": "32",
        "value": "t_struct(DCRecieverData)593_storage"
      },
      "t_mapping(t_address,t_uint256)": {
        "encoding": "mapping",
        "key": "t_address",
        "label": "mapping(address => uint256)",
        "numberOfBytes": "32",
        "value": "t_uint256"
      },
      "t_struct(DCRecieverData)593_storage": {
        "encoding": "inplace",
        "label": "struct DCRecieverData",
        "members": [
          {
            "astId": 590,
            "contract": "contracts/EgodXCSender.sol:EgodXCSender",
            "label": "recieverAddress",
            "offset": 0,
            "slot": "0",
            "type": "t_address"
          },
          {
            "astId": 592,
            "contract": "contracts/EgodXCSender.sol:EgodXCSender",
            "label": "enabled",
            "offset": 20,
            "slot": "0",
            "type": "t_bool"
          }
        ],
        "numberOfBytes": "32"
      },
      "t_uint256": {
        "encoding": "inplace",
        "label": "uint256",
        "numberOfBytes": "32"
      }
    }
  }
}